:020000041000EA
:1000000000B5324B212058609868022188439860DF
:10001000D860186158612E4B002199600221596106
:100020000121F02299502B49196001219960352056
:1000300000F044F80222904214D00621196600F024
:1000400034F8196E01211966002018661A6600F04E
:100050002CF8196E196E196E052000F02FF8012189
:100060000842F9D1002199601B49196000215960AB
:100070001A491B48016001219960EB211966A021F2
:10008000196600F012F800219960164914480160C1
:100090000121996001BC002800D000471248134993
:1000A000086003C880F30888084703B5996A0420EC
:1000B0000142FBD001200142F8D103BD02B5186610
:1000C0001866FFF7F2FF186E186E02BD00000240BE
:1000D000000000180000070000035F00212200005C
:1000E000F4000018222000A00001001008ED00E03C
:1000F00000000000000000000000000074B24E7A12
:1001000000200420F7010010C3010010C5010010F9
:10011000C1010010C1010010C1010010C101001097
:10012000C1010010C1010010C1010010C701001081
:10013000C1010010C1010010C9010010CB01001065
:10014000CD010010CD010010CD010010CD01001037
:10015000CD010010CD010010CD010010CD01001027
:10016000CD010010CD010010CD010010CD01001017
:10017000CD010010CD010010CD010010CD01001007
:10018000CD010010CD010010CD010010CD010010F7
:10019000CD010010CD010010CD010010CD010010E7
:1001A000CD010010CD010010CD010010CD010010D7
:1001B000CD010010CD010010CD010010CD010010C7
:1001C00000BE00BE00BE00BE00BE00BE00F04BF888
:1001D000103800BEF2EB8871D0240010F424001017
:1001E0003402001090A31AE700202149086006C8D5
:1001F00081F3088810471F48006800282FD10DA4FC
:100200000ECC002902D000F012F8F9E71A491B4A77
:10021000002000E001C19142FCD1194988471949E9
:1002200088471949884700BEFDE701C901C29A42C3
:10023000FBD37047F4240010C000002040020020CF
:100240007426001000000420000004207426001012
:1002500000100420001004200000000070470B482C
:1002600001F032FC0047EFF30580C0B27047000098
:1002700008ED00E0000000D0400200201806002039
:10028000A915001011030010991600105756000010
:1002900006005250ABB360532C240010060052509D
:1002A000861C03023C240010060052505422A29DDA
:1002B0004824001005005250DE65F46874260010D2
:1002C000F8B5C04606480749091A8B10C90FC91866
:1002D00010B5491003D0044B002B00D0984710BD37
:1002E000400200204002002000000000054B10B535
:1002F000002B03D00449054800E000BFFFF7E2FFF0
:1003000010BDC04600000000CC050020C023001036
:1003100070B586B001F090FE3E493F4801F0F6FE10
:10032000062106001C2000F083F8012300211C2276
:100330003948009301F062FF80235B020293F31CB3
:10034000F2011B031343354A052013400393344B3A
:100350000593344B049301F019FB01F0ADFC3249D5
:1003600001F08FFC051C01F0CFFC84B20023002CAF
:100370000DD0200001F0A0FC011C281C01F07BFC2A
:100380008721C90501F091FC01F0BEFCC3B2224DEA
:1003900024041B02234332000293002102AB2800F5
:1003A00001F06EFF012280242B68640213432B604E
:1003B0006B682342FCD1FE23FA20DB032B61400053
:1003C00000F0F0FC6B682342FCD1FE23FA20DB0135
:1003D0002B61400000F0E6FC6B682342FCD1FA2060
:1003E000124B40002B6100F0DDFC6B682342FCD116
:1003F000FF23FA201B062B61400000F0D3FC6B6842
:100400001A0022402342FAD1FA202A61400000F06B
:10041000C9FCCDE7C023001000002050FFFFFF9F64
:1004200000700020000006400024F44A0000FF8C09
:10043000094A10B594464024830063441A68C000FA
:100440006240803414408022520113431C60034BED
:100450009C466044416010BD04C001400040014022
:10046000EFF3108072B6034A1368002BFCD0BFF381
:100470005F8F70472C0100D0BFF35F8F0022024BCB
:100480001A6080F3108870472C0100D070B5EFF32C
:10049000108C72B60D4D2B68002BFCD0BFF35F8F14
:1004A0000724CB08C618C05C01230C40A3401C00E5
:1004B0000440034207D118433070BFF35F8F2C60B4
:1004C0008CF3108870BD100001F0E8F82C0100D00A
:1004D000024B18688007C00F7047C04600C0064036
:1004E0000021044B044ABFF35F8F02C39342FAD149
:1004F0007047C046000100D0800100D0044A107847
:10050000431CDBB2172B00D9102313707047C04671
:100510007401002001238340002904D0034A1360A2
:10052000034A13607047034A1360FBE780E200E070
:1005300000E100E080E100E0024B10309B688000A9
:10054000C058704700ED00E070B50D00EFF3108665
:1005500072B60F4A1368002BFCD0BFF35F8F0D4BB0
:1005600010309B6884001B590B4A934203D09D4274
:1005700001D001F0ABF8074B9B681D51BFF35F8FB3
:10058000BFF35F8F0022024B1A6086F3108870BDA4
:10059000240100D000ED00E0CD010010F0B5DE46F2
:1005A00057464E464546E0B50C0083B0EFF3108A3F
:1005B00072B6604A1368002BFCD0BFF35F8F102225
:1005C000914681444A465C4B96009B689D595B4B23
:1005D00098469D4205D0A54216D0594FEB1B2F2BB4
:1005E00014D9554B9B689D51BFF35F8FBFF35F8F4D
:1005F0000022504B1A608AF3108803B0F0BCBB464F
:10060000B246A946A046F0BD1D00EAE7012383409B
:100610009B465A464B4B1B681A4000925A464A4B1F
:100620001A60BFF35F8FFFF71EFE031E01901DD1FE
:100630002A0001339A439068844208D171E04B004C
:100640005B189B00FB189868A04245D01A00062151
:1006500051560029F3DA84426AD0009B002B34D033
:100660005A463A4B1A60374B1A60BAE7814530D187
:100670002A0001239A4390688442E8D1062151560A
:100680001300002940DB4A00501880003C188046C7
:10069000A0689860E079D8710620205698710028EB
:1006A0002FDBA488F81A6405241544440019E024BB
:1006B0000005400D2402204398805318244A9B00D3
:1006C0001078FB1898711170C7E75A461E4B1A60D4
:1006D00087E700F0FBFFCBE7062159560029D2DA65
:1006E0000199002910D1FF3191711A49918018495F
:1006F0000A789A71184ADB1B5B415A43120D0A7043
:10070000ABE7BD200002D7E7144A1549D21A083AD0
:100710005002400D01439980124952080A43DA8081
:100720009BE70621515613000029ACDA4546DEE767
:100730001300D5E7240100D000ED00E0CD0100104A
:100740007801002000E100E080E100E080E200E0CC
:100750001506002000BDFFFFAAAA0000B20100207C
:1007600000F0FFFF00F8FFFFF8B501250400054386
:10077000FFF779FDEFF3108C72B6214A1368002B56
:10078000FCD0BFF35F8F1F4E2100B7681E4A1F4B7E
:10079000891A49414B431B0D59B28300F858A842AE
:1007A0001CD00623D3568B421CD01223D3568B4227
:1007B00022D01E23D3568B4220D02A23D356032087
:1007C0008B4210D0124B1A781970A271BFF35F8F51
:1007D00000220B4B1A608CF31088F8BDB2680D48EC
:1007E000D050EFE7002043001B189B00D218FF23D6
:1007F0009371094B9380E5E70120F4E70220F2E7CB
:10080000240100D000ED00E078010020AAAA000039
:1008100015060020CD01001000BDFFFF054B064A64
:100820001360064A136053609360D3601361536191
:10083000936170478080808000E400E004E400E081
:10084000024B9C46614489000160704740000034BF
:1008500083680B4810B58446614462441201090163
:1008600059189B185C684A680120944201D802D04C
:100870000020C0B210BD1A680B689A42F9D8F7E799
:10088000FFFFFF0F0A4B1968EFF3108072B60A687A
:10089000002AFCD0BFF35F8F1B68BFF35F8F00227D
:1008A0001A6080F3108840BF002000217047C046C6
:1008B000F8050020F8B5574645464E46DE46E0B5F9
:1008C00098460CAB1C780DAB1B78070091469A46F6
:1008D0000568002C5ED1AC7B002C3BD066002968FB
:1008E0003619033E89194B78AB73002B00D1EB739B
:1008F00000238B704B700B702D4BE218BB681201FC
:100900009B184A461A6042465A600A9A9A600B9AA5
:10091000DA6000238B704B700B706B7B9B46002B57
:100920002BD022005946A8686B6898472A6800288F
:1009300016D05B4658465B005B449619033BB0708B
:10094000D118D35C002B00D073705B460C706B73B6
:100950005C4513D0F0BCBB46B246A946A046F8BDE4
:100960005B465B005B44033BD3189C709119925D1E
:10097000002A00D05A705B460B706C734A4643469F
:10098000387D00F0F3FA051E0AD10E9B002BE1D052
:100990001D70DFE7660029683619033E8919ABE749
:1009A0005346002BF1D12100386800F035FDECE70B
:1009B000FFFFFF0FF0B5DE4657464E464546002383
:1009C000E0B58DB00A936A4B8200D75800239B464E
:1009D0000B9000F06BFA02000B007868EFF31089BF
:1009E00072B64D4601680029FCD0A946BFF35F8F5F
:1009F00039684E7B8C46002E2ED0BC685D49A246DD
:100A0000711809018A4451460868496804000D00BC
:100A1000A41A9D41002D5EDD02000B000B9800F032
:100A2000A5FA002300229A46002308920993002386
:100A300098467B68BFF35F8F5A461A6089F3108827
:100A40004346002B12D10028C3D10DB0F0BCBB46E9
:100A5000B246A946A046F0BD002300229A460023D4
:100A600008920993002300209846E2E70A9B51462A
:100A700018023043C047069007917A68EFF310855B
:100A800072B654461368002BFCD0A246BFF35F8FAA
:100A90000699079A002A3BDB114302D03B69002BE1
:100AA00052D13B68D97B002905D01A68480041180B
:100AB0005218033A5670DE73FA68013E935D0133B3
:100AC00093555B463B617B68BFF35F8F5A461A6064
:100AD00085F310887DE7002D01D1002C9CD10021E9
:100AE000604600F001FC53465C681B68089309945B
:100AF00053469B6898465346DB689A46FB689B19A9
:100B0000013B1B780A931B0203433B61002090E7E3
:100B10003B69002BC5D0089B099C5B1A944108983F
:100B200009991A002300A14219D899421BD000212B
:100B300004910131039151460191414638000296DA
:100B40000091FFF7B7FEBCE700F0B0F9069A079BEB
:100B500012184B41994202D8E9D19042E7D90122BB
:100B60005242D317E3E708999142E0D9F7E7C0462C
:100B7000E4050020FFFFFF0FF8B557464E464546F7
:100B8000DE46E0B5404D824689466A68EFF310883C
:100B900072B61368002BFCD0BFF35F8F2E68B47B56
:100BA000002C48D0670033683F19033FDB195A789F
:100BB000B273002A00D1F273344AA118AA6809015D
:100BC00052185146116049465160314991600021E7
:100BD000D160997059701970737B9B46002B45D07A
:100BE00022005946B068736898473268002830D0B0
:100BF0005B4658465B005B44D719033BB870D1187D
:100C0000D35C002B00D07B705B460C7073735C452B
:100C10002DD00026EB681B19013B19786B68BFF3D8
:100C20005F8F00221A6088F310880020002E0AD1FE
:100C30000802204307E06B68BFF35F8F1C6088F3F6
:100C4000108801204042F0BCBB46B246A946A046EF
:100C5000F8BD5B465B005B44033BD3189C70D11925
:100C6000D25D002A00D05A705B460B7074735246F6
:100C70004B46287D00F07AF9061ECAD0210028686C
:100C800000F0CAFBC6E7C046C0010020FFFFFF0F0F
:100C90008508001010B5124C6368002B04D00A219F
:100CA0001048FFF7CDFD10BD23000F4A102120682A
:100CB00000F01AFA032000F0EDF8032000F0C4F968
:100CC00003200A4900F00CF9FFF718FC084B9C467A
:100CD000032360442375074B80006060DC60DEE71F
:100CE000C0010020F805002051080010B5090010CF
:100CF00040000034E4050020F0B504000D00062695
:100D00007642F717C64636196F4100B58F4213D8A1
:100D100010D000F0CBF832003B00121A8B41002BB0
:100D200014DC002B37D02900200000F0C9F880BC6B
:100D3000B846F0BD8642ECD90026002700F0B6F890
:100D400032003B00121A8B41002BEADD30003900E3
:100D5000FFF712FF0028E6DB00239846BC460F4A47
:100D60000F4F7B6A9C4504D8B96AB142DBD29C45DF
:100D7000D9D11168EFF3108072B60B68002BFCD04C
:100D8000BFF35F8F1368BFF35F8F4146196080F335
:100D9000108820BFE5E7002AC5D0D7E7F805002076
:100DA0000040054070B5060000F080F8FA2204000B
:100DB0000D00002330000021920000F03FFF0019D9
:100DC00069418D4205D802D0FFF796FF70BD84427D
:100DD000FAD901204042C117F6E7C046F0B5D64621
:100DE0004F464646C0B5EFF305823F231340180037
:100DF0001038EFF3108C72B620490A68002AFCD034
:100E0000BFF35F8F0122170087401D4C1600A246DA
:100E100067631C4C2578A0462C00C4402640224223
:100E200015D05246566A184A8400A258964218D3E2
:100E30004246164BBD43E3581570BFF35F8F002247
:100E40000A608CF31088002B06D0984704E0BFF3AB
:100E50005F8F0E608CF31088E0BCBA46B146A8469E
:100E6000F0BD0B4A9B00904643441A681A60BFF3DA
:100E70005F8F00230B608CF31088EDE7280100D012
:100E80000040054016060020FC05002070050020EB
:100E9000D03F054010B5034B01001800024AFFF790
:100EA000F5FA10BD14060020D0230010034B596A38
:100EB0000A00986A596A8A42FAD170470040054090
:100EC000064A536A9942FCD807D1044B02E05A6A99
:100ED000914202D19A6A8242F9D37047004005409C
:100EE00070B504000D00EFF3108672B61A4A13684D
:100EF000002BFCD0BFF35F8F002D1BD02000FFF72D
:100F00001BFB164981420AD02000FFF71DFB01217F
:100F10002000FFF7FFFA0123A340114A1360114B91
:100F2000A400E550BFF35F8F00220B4B1A6086F3DD
:100F3000108870BD0121A1400A4BA200D5500A4B78
:100F400020001A788A4305491A70FFF727FB002111
:100F50002000FFF7DFFAE5E7280100D0DD0D0010E3
:100F6000386005407005002016060020F0B54F4699
:100F7000D6464646C0B507002E4C616A0D00A66AEB
:100F8000616AA942FAD18B4208D805D00120E0BCA1
:100F9000BA46B146A846F0BDB242F7D9EFF3108A7F
:100FA00072B6254801680029FCD0BFF35F8F012588
:100FB000BD4022491F4C8846097889462943C9B259
:100FC0008C46414660460870391D890065630A51A8
:100FD0001B49B8004350216A0020294219D0616A98
:100FE0000800A66A616A8142FAD18B4219D801D100
:100FF000B24216D8CC450BD00E4B1F221D625D634A
:1010000001233A4093400F4A136043464A461A7000
:101010000120BFF35F8F0022074B1A608AF310880C
:10102000B5E70020BFF35F8F0022034B1A608AF3FD
:101030001088ACE700400540280100D016060020CB
:10104000FC05002080E200E0EFF3108C72B60A4944
:101050000B68002BFCD0BFF35F8F01238340074A4E
:101060000748136202789A430270BFF35F8F002330
:101070000B608CF310887047280100D000400540B9
:101080001606002070B505000E001400002923D0BC
:10109000002A12D080686B689847296800280ED013
:1010A00063001B197200033B9219CB18033A9E7020
:1010B00088188A5C002A11D10470300070BD73005A
:1010C0009B196200033B1219CB18033A9C708818D5
:1010D0008A5C002A05D106702000EFE75A70047080
:1010E000EBE75A700670F7E730B583600023CCB2A7
:1010F00043730133047342608373C4730D0000684B
:10110000012C06D9421C0133DBB2137003329C421E
:10111000F9D1FF2129404B005B18C0180023033888
:10112000437030BD70B505000C1E07D06300016828
:101130001B19033BCB185A78002A01D1200070BD3F
:10114000500080180338091800204E78487021009C
:1011500058702800FFF796FF310004002800FFF7C1
:10116000E1FF0600002C26D00028E7D02100320045
:10117000A8686B689847296800280ED073009B19EF
:101180006200033B1219CB18033A9C7088188A5CE2
:10119000002A00D05A700670D0E763001B19720055
:1011A000033B9219CB18033A9E7088188A5C002A78
:1011B00000D05A7004703400C0E7C046F8B55746F6
:1011C0004E464546DE464C00E0B5641817000268FE
:1011D000033C0500105D13190E009C46002852D0F8
:1011E000430098461B18033BD31859788A460029B8
:1011F00019D1002F0CD0EC7B002C50D063001B19B0
:10120000D318033B5E70EE73434619180339531825
:1012100000229A70002362465370F0BCBB46B2466F
:10122000A946A046F8BD49005144033952185178E7
:1012300088460021517089465970524601002800A5
:10124000FFF720FF43468246002B07D05B0029684A
:101250004344033BCB185A78002A2CD151464246CE
:101260002800FFF70FFF0100002F1AD0A4462A68BC
:10127000EF7B9444002F04D07B00DB19D318033B91
:101280005E70EE7310E0002FC4D0E97B002910D00F
:101290004B005B18D318033B5E70EE73BAE7EE7336
:1012A000B6E7A4462A6894440029B3D04B00984678
:1012B000AAE7EE73AEE750008018033809184878A3
:1012C000834648464870587041462800FFF7DAFECA
:1012D000594680462800FFF725FF414602002800B6
:1012E000FFF7D0FE8046B9E7F8B557464E4645466B
:1012F000DE46E0B5467B02687500AD19033D0F0080
:10130000515D531904009C46002953D04B00984668
:101310005B18033BD3185878824600281BD1002F56
:101320000CD0E57B002D51D06B005B19D318033B2B
:101330005E70E673434658180338131800229A70FB
:1013400000236246300053706173F0BCBB46B24666
:10135000A946A046F8BD4000504403381218507802
:101360008046002050708146587052462000FFF79A
:1013700089FE43468246002B07D05B002168434428
:10138000033BCB185A78002A2CD151464246200004
:10139000FFF778FE0100002F1AD0AC462268E77BE9
:1013A0009444002F04D07B00DB19D318033B5E70FC
:1013B000E67310E0002FC3D0C07B002810D043009C
:1013C0001B18D318033B5E70E673B9E7E673B5E705
:1013D000AC46226894440028B2D043009846A9E75E
:1013E000E673ADE750008018033809184878834643
:1013F00048464870587041462000FFF743FE594662
:1014000080462000FFF78EFE414602002000FFF7D5
:1014100039FE8046B9E7C04670B5050000292CD0DA
:10142000437B8B422ED04C0000686418033C0419A7
:10143000A278002A21D053009B18033BC25CC61837
:101440008A4202D11BE0002A08D053009B18033BBC
:10145000C3185A788A42F6D162785A700023012262
:101460002800A3706370FFF7A9FE697B02002800C3
:10147000FFF708FE6873012000E0002070BD63786C
:101480003370EBE701221900FFF798FEF2E7C04640
:1014900010B50400FFF732F801002000FFF7D0F983
:1014A000FF232371BFF35F8F10BDC04610B504004A
:1014B000FFF724F801002000FFF7C2F9FF23A38003
:1014C000BFF35F8F10BDC046F8B5040006200D00C5
:1014D00000F05CFA002844D02A4B2B49E218534212
:1014E0005A418023DB039C469205284B62441A60D4
:1014F000274B1A6010008B689843FBD1214B254A7B
:10150000E31859424B4180215B0049000620995263
:1015100000F03CFA2900C00000F008FBC30921D10B
:1015200040270121260080256162A36200232C361A
:10153000AD0135432B60062000F028FA3900800009
:1015400000F0F4FA6022E36A53400E321A4080231E
:101550005B0133431A60104B236310232B600D3B58
:10156000A364F8BD0D4A934203D900230C4F0D49E3
:10157000D8E77F220240013252089F011900BF18AC
:101580001300CFE70080FCBF00C0004000E0004037
:1015900000F000400C06002001030000FEFF0000E8
:1015A000C0FF3F00FFFF00002C4B2D4A70B51A60B2
:1015B0002C4A2D4B2D491A6014008B689C43FBD19B
:1015C0002B4D2C4EB54208D2013E761BB60808CDF5
:1015D000984723000134B342F9D100F07DF8264A40
:1015E000214B1A60214A9368DB43DB01DD09002BA4
:1015F000F9D14022214B224C224E9A675A671A6732
:10160000DA66B44208D223682000002B20D00834C8
:10161000FFF74CFFB442F6D31B4C1C4EC022B168FE
:10162000200000F0C7FBB460FEF75AFFFFF7F6F8A2
:10163000FFF730FB164C174EB44208D2013E361B62
:10164000B60808CC98472B0001359E42F9D170BDF1
:101650000834FFF71DFFB442D5D3DDE700E00040BA
:10166000BFCDFBFEFE7F3C0000F0004000C000400C
:101670002C0200203C020020FFFFFF0100F001408F
:10168000240200202C0200200000002000ED00E0D9
:101690003C0200204002002000BEFDE70FB400B570
:1016A000084883B000F03CFC049B002B07D005A940
:1016B0001800019100F0E8F9034800F031FC00BE89
:1016C000FDE7C046F42300100424001010B50148C3
:1016D000FFF7E4FF0824001010B50C2082B000F0E2
:1016E000AFF9FEF7F5FE002810D0864B86488649F4
:1016F000864A186059609860D9601861596198618C
:10170000D961186259625A6202B010BD804CA0675C
:1017100000F09EF901227F4B1A60636C012BFCD113
:1017200003227D4B1A607A4A936B012BFCD1013363
:1017300001217A4A7A480093043300F02DF90523F9
:10174000784A00930121784800F026F9774B5A68CF
:10175000FF2A02D8802252005A6080226E4B694CC8
:1017600012011A602169002905D0606900F0DEF9D4
:1017700001300138FDD1E0226C4B6D4819680A40F8
:10178000026002221968514001320A4004210260BD
:101790009A681142FCD08021664A090111608022BA
:1017A00052005A60644B2361644B5968FF2900D88A
:1017B0005A6003220121574B1A60604A936819420C
:1017C000FCD0E023106803405D48036012680323E7
:1017D0004A4002211340594A036093681942FCD0E1
:1017E0008021584B090119608021574B49005160F5
:1017F0006361564B5A68FF2A00D859608022544BC7
:1018000012011A60E169002905D0606900F08EF9C3
:1018100001300138FDD1E0234C4A11680B404D499D
:101820000B6080214C4B090119608021364B490027
:101830005160E361494B5A68FF2A00D85960802201
:10184000474B12011A60216A002905D0606900F037
:101850006DF901300138FDD1E023404A11680B4099
:1018600040490B608021404B0901196080235B00D7
:1018700053608022244BD20223623C4B5968914230
:1018800000D25A6080223A4B12011A60616A002924
:1018900005D0606900F04AF901300138FDD1E0233C
:1018A000324A11680B4033490B608021324B0901E9
:1018B00019608023DB025360144B63622F4B5A681C
:1018C000FF2A02D8802252005A6080222C4B12013B
:1018D0001A60A169002905D0606900F027F901307C
:1018E0000138FDD1E023254A11680B4025490B60E2
:1018F0008021254B0901196080235B005360124B46
:10190000A36101E740020020006CDC021BB700006D
:10191000008000403CB0004030B00040002F6859CB
:1019200000800240008C864700C0024030800040AA
:101930003090004030A00040001BB7003C800040C9
:101940003C9000403CA00040405973075480004048
:1019500054B000405490004054A0004060800040CB
:1019600060B000406090004060A000406C8000408B
:101970006CB000406C9000406CA00040488000407B
:1019800048B000404890004048A00040014B800013
:10199000C058704740020020F8B504000C20170022
:1019A0001D000E0000F0C2F843011B1A9901C91A6C
:1019B000C90009188901380000F0B8F8069B29040D
:1019C0001B0319432368002B20DB194B194DE31827
:1019D0005A4253418022520194461B03164A6344E3
:1019E0001360164A13601F00AA689743FBD1C023F7
:1019F000221D9B01134321222660A0601A602268E9
:101A0000002AFCDA0822E1601A60F8BD3F23226850
:101A10001340B342D9D1A3681B051B0D8342D4D117
:101A2000EE22E368D20213408B42CED1EDE7C046EE
:101A30000040FDBF00C0004000E0004000F000405A
:101A40008023024A9B000343D36270470080054015
:101A5000AA23064A1B0113602F230549D360054BB7
:101A600019605368002BFCDA7047C0460040024002
:101A700000B0FA000060024010B5002800D110BD8F
:101A800000F0FCF9FBE7C04610B5094A03001468F2
:101A900084B0002C08D0012200910648524203A9CC
:101AA000A047012004B010BD00F03AFA0020F9E789
:101AB000C8050020791A001001480421014B18477D
:101AC000F0010020E91A0010142310B50100188855
:101AD00004331B88984710BD162310B501001888E1
:101AE00002331B88984710BDF8B54746CE4680B5EF
:101AF0000F1E19D014239946043304000025012633
:101B000098464B461888434621681B88984701C46D
:101B1000431E9841013540420640AF42F1D13000AA
:101B2000C0BCB946B046F8BD0126F8E7114A936F2C
:101B30009B0813D210665166002905D0FFE7FFE726
:101B4000FFE7516F106F704704B5002801D00020E7
:101B5000C04300F01DFC002104BDC046F0B5146E6A
:101B6000556E576F166FFFF7E5FF1466556657679A
:101B70001667F0BD000000D0132370B51D78012D4D
:101B800015D010DD1D48FFF7A7FF1D4C0100802276
:101B9000200000F00FF9022D2DD01A48FFF794FF16
:101BA000194B186070BD194B154CA364F5E7174B22
:101BB000134C23606360A360E36023616361A361EE
:101BC000E36123626362A362E36223636363A363EB
:101BD000E36323646364A364E36423656365A365CB
:101BE000E36523666366A366E36623676367A367AB
:101BF000E367A364D1E7054BA364CEE75344000039
:101C0000680300204C330000F4050020111C001074
:101C100007B5604601880A0A0230DF2AFAD1C9B244
:101C2000820804D3028840880004104300E0006862
:101C3000014A5050039007BD6803002051434343BD
:101C4000C9188C46110C83B24B4310B4040C614389
:101C500092B280B2504362431C041B0C001910BCAA
:101C600059411304120CC0185141614470470000DF
:101C70004840414048400E4B5B6818470C4B1B687E
:101C800018470C4A936F9B0802D2094BDB68184730
:101C9000F0B5146E556E576F166FFFF7F6FF054AD5
:101CA0001466556657671667F0BD014B9B68184769
:101CB00068040020000000D0491A002808D1084616
:101CC00070470000C10FC90700D54042002817D057
:101CD000F44603B40B4B1B68984706BC81409E3802
:101CE0004042803107D20B0607D04900490AC0059F
:101CF0001043084360470130F8E7490A8902F5E7D5
:101D000070470000F4050020014B5B6A1847000093
:101D100068040020132310B512481C78FFF7DCFE7E
:101D20000100012C0AD003DD80220F4800F042F8A8
:101D30000E48FFF7C9FE0E4B186010BD0A4C542226
:101D4000200000F037F80B4B6365A365E36523665D
:101D50006366A366E36623676367A367E36723623B
:101D6000E361E5E753460000680400204C330000BF
:101D7000F4050020791D001007B5604601880A0AA5
:101D80000230DF2AFAD1C9B2820804D3028840881F
:101D90000004104300E00068014A5050039007BD62
:101DA0006804002001480421014B1847000200206C
:101DB000E91A0010014B5B68184700000002002080
:101DC000F0B546464F46D646C0B5437C80460E0029
:101DD0001700002B4BD0002A32DD274B01259A46F5
:101DE0004B1E00240020994607E0335D0A2B2CD0BF
:101DF0002B0001340135BB4213DA002CF5D13378C6
:101E00000A2BF5D143461B7C002BF1D143465046AB
:101E100002211B68984728002B0001340135BB4282
:101E2000EBDB874204DD4346391A1B6830189847BC
:101E3000F619013E33780D3B5A4253414246137422
:101E4000E0BCBA46B146A846F0BD4B461B5D0D2B23
:101E5000CED0A042DADA4346211A1B6830189847E0
:101E60004346504602211B6898472800D4E7036880
:101E7000110030009847E3E778240010F0B5CE4613
:101E8000474680B583B06B46DE1CD02330701B06FE
:101E90001C68204B804601A91800994600F080FA82
:101EA000071E20D01C4B1C68002C29D01B4D02E0C3
:101EB000E468002C0FD02368002BF9D02B68002B8E
:101EC00001D0A342F4D1200001223100FFF778FFB6
:101ED000E468002CEFD1002F12D1404603B0C0BC03
:101EE000B946B046F0BD019B64B29C420CD0484656
:101EF00000F05EFA084B1C68002C01D00127D5E7E2
:101F0000484600F03DFAE8E7034B1C68002CCDD1B1
:101F1000E3E7C04624020020C0050020C4050020DD
:101F2000F0B5DE4645464E465746E0B583B006005E
:101F300000F0F4F9D0231B061C68304B050001A902
:101F400018009B4600F02CFA804600283DD02C4B10
:101F50001C689A46002C47D00A232A4F994602E073
:101F6000E468002C17D02368002BF9D03B68002BC5
:101F700001D0A342F4D120002A003100FFF720FF56
:101F80006B464A4620001A7101A90122FFF718FF8B
:101F9000E468002CE7D14346002B25D153461C684A
:101FA000002C06D06368002B0BD09847E468002C07
:101FB000F8D1280003B0F0BCBB46B246A946A04603
:101FC000F0BDE468002CEDD1F3E7019B64B29C42C4
:101FD0000ED0584600F0ECF9094B1C689A46002CCC
:101FE00002D001239846B7E7584600F0C9F9D5E773
:101FF000034B1C689A46002CAED1DAE7240200207D
:10200000C0050020C40500200A4A1368002B05D132
:102010000CE01A00DB680C32002B07D09842F8D194
:10202000002902D1C3681360C16070470029FCD049
:102030001060FAE7C005002010B500F043F810BDAD
:10204000F0B5002915DD0E4B0D271A680D4B0E4C0F
:10205000D3185D426B41451820215B001E5F047858
:10206000A64207D093691942FCD101301460A842FE
:10207000F5D1F0BD93691942FCD11760F2E7C04673
:10208000100600200080FCBF0C06002030B50500C3
:10209000002912DD00201024094B013D1A689369C4
:1020A0001C4208D1013093691C42FCD113682B54A7
:1020B0008142F4D130BD0028FCD103204042F9E731
:1020C00010060020E12110B50B4B0C481B780C4B7F
:1020D00049021B780B4B1860FFF7F6F9022100202C
:1020E000FEF7A6F902210120FEF7A2F90121064818
:1020F000FFF78AFF10BDC046F024001000400340E7
:10210000EC2400101006002010020020F0B5DE467E
:1021100057464E4645468846E0B583B0060005243E
:10212000FEF79EF943461F791C57314B8246F31840
:102130005A4253419B009C462E4A130093466246E6
:102140009B5801229946BA402023013ADB1B002C00
:1021500036DB9C4246DCA2404B46134242D1019200
:10216000002F1CD04246434652781B7812021A4375
:1021700043469B7880251B0413434246D0780022B7
:1021800000061843AD015300C15AA94200D20919F3
:10219000A31812339B0001329951BA42F3D34D4632
:1021A000019B62461D435B4650469D50FEF764F915
:1021B000200003B0F0BCBB46B246A946A046F0BD25
:1021C000002B0FDB1100484699401C000191014291
:1021D00006D1C5E7150049469D401C00294204D0A0
:1021E000013BF7D20448FFF759FA0195B8E7C0461A
:1021F0000000D0AF68050020BC240010F0B54E46AA
:102200004546DE4657468A464900E0B50E00804600
:102210005644F60046448946310009ACDC31257845
:1022200008686C426541844614481E2483466D420A
:10223000A5435D44052B0CD9A0201F274005D836A7
:10224000540104430532053B0C603A403560052BD0
:10225000F6D84F465744FF003800520140449B06D1
:1022600013430200DC3213606346D830056013600C
:10227000F0BCBB46B246A946A046F0BD9FE00000B8
:10228000F0B501258D400468AC430460002B30D0CC
:102290004D006C18E400041926001F68C83637602A
:1022A0005F68DC3477609F68DB68B76023606B1819
:1022B000DB001D008024D035451964012C438025A6
:1022C0002D0625602560144C0D1D8C408460012472
:1022D0002700AF403D0008318C401F2106680A40AE
:1022E0003543056005682C430460C018D83002608F
:1022F000F0BD4D006C18E400041926008027C83694
:102300007F023760F8277F027760C027DC343F0305
:10231000B7602360CBE7C0460101010110B5830718
:102320000AD00300032102E001330B4205D01A78E2
:10233000002AF9D1181A10BD030019680C4A0D4C77
:102340008A188A4322420FD15968094A04338A18ED
:102350008A43224208D15968054A04338A188A43BD
:102360002242F1D000E001331A78002AFBD1E1E7E4
:10237000FFFEFEFE80808080F8B5C04600000000B1
:1023800001B40248844601BC604700BF49010020F7
:1023900001B40248844601BC604700BF71010020BF
:1023A00001B40248844601BC604700BF0901002017
:1023B00001B40248844601BC604700BFC100002050
:1023C000C823001004FF000021622311001442A45E
:1023D000486172647761726520616C61726D20255D
:1023E0006420616C726561647920636C61696D65FC
:1023F000640000000A2A2A2A2050414E4943202A1C
:102400002A2A0A000A00000048617264206173737E
:102410006572740052656C6561736500626F6F74FC
:10242000325F77323571303830000000312E342E73
:10243000300000007069636F000000006173736911
:10244000676E3032000000004D617220323220325F
:102450003032330006005250D3F07542142400107D
:1024600006005250E182887F1C2400100600525062
:10247000BBFF3CB6342400100D0A000055415254F5
:1024800020737464696E0000554152542073746463
:102490006F7574005541525420737464696E202F17
:1024A000207374646F7574000600525053B4F4A125
:1024B0009424001008005250920000004E6F2070CB
:1024C000726F6772616D2073706163650000000058
:1024D0005424001060240010900200106C2400109E
:1024E0009C020010A8020010B4020010B4240010D6
:0424F000A82400100C
:1024F400D02330B500251B0600245D5706E0036891
:10250400BFF35F8F1C6081F3108820BF0268EFF374
:10251400108172B61368002BFCD0BFF35F8F037970
:102524007F2BECD905710368BFF35F8F00221A601B
:1025340081F3108830BDC04603000068EFF3108CAF
:1025440072B60268002AFCD0BFF35F8F04229A5649
:10255400002A04DB002900D00A60002004E0D02215
:102564000120120612681A711B68BFF35F8F0022E4
:102574001A608CF3108870470268EFF3108172B60A
:102584001368002BFCD0BFF35F8FFF230371036834
:10259400BFF35F8F00221A6081F3108840BF704739
:1025A4007047C04610000000000000000000010059
:1025B4000000000000000000000002000000000015
:1025C4000000000000000300000000000000000004
:1025D4000000FF000000000000B5486801318E468D
:1025E4000047704609380149884700BD6907001053
:1025F400D8010020000000006802002080050020AF
:102604000000000000000000900500200000000011
:1026140000000000100000000000000000000000A6
:10262400503300004C330000543300005233000098
:102634004D5300004D430000533400004334000068
:1026440041200010000000008D2000100000000058
:10265400000100000000000000000000A51D0010A3
:10266400B91A0010791B0010151D0010ED0200109E
:04000005100001E9FD
:00000001FF
