:020000041000EA
:1000000000B5324B212058609868022188439860DF
:10001000D860186158612E4B002199600221596106
:100020000121F02299502B49196001219960352056
:1000300000F044F80222904214D00621196600F024
:1000400034F8196E01211966002018661A6600F04E
:100050002CF8196E196E196E052000F02FF8012189
:100060000842F9D1002199601B49196000215960AB
:100070001A491B48016001219960EB211966A021F2
:10008000196600F012F800219960164914480160C1
:100090000121996001BC002800D000471248134993
:1000A000086003C880F30888084703B5996A0420EC
:1000B0000142FBD001200142F8D103BD02B5186610
:1000C0001866FFF7F2FF186E186E02BD00000240BE
:1000D000000000180000070000035F00212200005C
:1000E000F4000018222000A00001001008ED00E03C
:1000F00000000000000000000000000074B24E7A12
:1001000000200420F7010010C3010010C5010010F9
:10011000C1010010C1010010C1010010C101001097
:10012000C1010010C1010010C1010010C701001081
:10013000C1010010C1010010C9010010CB01001065
:10014000CD010010CD010010CD010010CD01001037
:10015000CD010010CD010010CD010010CD01001027
:10016000CD010010CD010010CD010010CD01001017
:10017000CD010010CD010010CD010010CD01001007
:10018000CD010010CD010010CD010010CD010010F7
:10019000CD010010CD010010CD010010CD010010E7
:1001A000CD010010CD010010CD010010CD010010D7
:1001B000CD010010CD010010CD010010CD010010C7
:1001C00000BE00BE00BE00BE00BE00BE00F04BF888
:1001D000103800BEF2EB88715C6E0010806E00106B
:1001E0003402001090A31AE700202149086006C8D5
:1001F00081F3088810471F48006800282FD10DA4FC
:100200000ECC002902D000F012F8F9E71A491B4A77
:10021000002000E001C19142FCD1194988471949E9
:1002200088471949884700BEFDE701C901C29A42C3
:10023000FBD37047806E0010C00000200C08002027
:10024000CC7500100000042000000420CC750010C4
:1002500000100420001004200000000070470B482C
:1002600003F07EFB0047EFF30580C0B2704700004B
:1002700008ED00E0000000D010080020240F00204E
:10028000051E0010B50B0010291F00105756000066
:1002900006005250ABB36053B86D001006005250C8
:1002A000861C0302C86D0010060052505422A29D05
:1002B000D46D001005005250DE65F468CC75001056
:1002C000F8B5C04606480749091A8B10C90FC91866
:1002D00010B5491003D0044B002B00D0984710BD37
:1002E0000C0800200C08002000000000054B10B591
:1002F000002B03D00449054800E000BFFFF7E2FFF0
:1003000010BDC04600000000300D0020C058001095
:1003100010B500F0DDFD10BD0123D0228340120690
:10032000002901D0536270479362FCE710B50122A7
:10033000042100F0A3FD10BD10B50122082100F03A
:100340009DFD10BD014B18607047C046700D002028
:10035000014B18607047C046740D0020014B1860B7
:100360007047C046180D0020014B18607047C0460A
:100370002C0D0020014B18607047C046100D002066
:10038000F0B5D6464F464646234892001358C0B5AE
:1003900012180800002B19D02025A9460D35A846B3
:1003A0000135AC461D4C1E4F1E4DA3422BD91E4E8F
:1003B000B2465344AB421DD8434603701368BB4258
:1003C00018D8936801300832002BEED10023CA5CA4
:1003D00010002D38012801D9202A01D10133F6E778
:1003E0002022CA54C91800234B70E0BCBA46B1465B
:1003F000A846F0BD4B460370936801300832002BCD
:10040000E4D0A342D3D8634603701368064E9E1906
:10041000AE42D4D8D0E7C046880D0020F049020093
:1004200040420F004FF80C000FB6FDFF10B5034817
:1004300004F0CCFA0122024B1A6010BD0C5A0010D5
:100440006C0D00200122014B1A607047580D0020EE
:1004500070B52D4B2D4A1E68126882B0012E16D041
:100460002B492C4C2C48002A00D1FEE70B78002B9E
:1004700002D02368012B3FD00368012BF3D1274B17
:1004800027491A680968274B9200D150EDE70022EE
:10049000254D244C694620001A602A68FFF770FF3A
:1004A0006846224905F032F800281CD068462049E9
:1004B00005F02CF800222368002810D0002B03D070
:1004C00004C42368002BFBD100220026134B1A60C2
:1004D000012330002B6002B070BD04C42368002BE0
:1004E000FBD10226F4E723680022002BF0D004C4DD
:1004F0002368002BFBD1EBE7084B0E491A6809680B
:10050000084B9200D150B0E7580D0020180D002084
:1005100078010020700D0020740D0020140D0020C3
:100520002C0D0020880D00201C0D0020C45B001045
:10053000CC5B0010100D002070B54B4C200004F077
:1005400045FA4A4804F042FA494804F03FFA49485B
:1005500004F03CFA484804F039FA484804F036FA06
:10056000474804F033FA200004F030FA454804F01C
:100570002DFA454804F02AFA444804F027FA444882
:1005800004F024FA434804F021FA434804F01EFA28
:10059000424804F01BFA424804F018FA414804F0BB
:1005A00015FA414804F012FA404804F00FFA404DA1
:1005B000280004F00BFA3F4804F008FA3E4804F023
:1005C00005FA3E4804F002FA3D4804F0FFF93D48C0
:1005D00004F0FCF93C4804F0F9F93C4804F0F6F961
:1005E0003B4804F0F3F93B4804F0F0F93A4804F0D2
:1005F000EDF9280004F0EAF9384804F0E7F9384842
:1006000004F0E4F9374804F0E1F9374804F0DEF982
:10061000364804F0DBF9364804F0D8F9354804F0E0
:10062000D5F9354804F0D2F9344804F0CFF934480C
:1006300004F0CCF9200004F0C9F9324D280004F090
:10064000C5F9314804F0C2F9280004F0BFF92F4879
:1006500004F0BCF92E4804F0B9F9280004F0B6F90A
:10066000200004F0B3F970BD205A0010D45B0010D4
:10067000285C00107C5C0010D05C0010245D001031
:10068000785D0010CC5D0010205E0010745E0010DC
:10069000C85E00101C5F0010705F0010C45F001087
:1006A000186000106C600010C06000101461001031
:1006B00068610010BC6100101062001064620010DC
:1006C000B86200100C63001060630010B463001087
:1006D000086400105C640010B06400100465001031
:1006E00058650010AC6500100066001054660010DC
:1006F000A8660010FC66001050670010A467001088
:10070000F8670010105900104C680010A068001025
:10071000F4680010F0B5DE46574645464E46E0B553
:1007200082469BB0642004F049F820238046602272
:10073000002102A8019304F05BF853461B78002BBC
:100740005BD000210022002700268B4609E0110023
:10075000013268460430435453460137DB5D002BB9
:1007600036D0202BF3D16B465946043399540023DD
:1007700000249946224D013709E04246373393550C
:1007800001239946013601340435232C11D0296800
:1007900001A804F0BBFE0028F5D12300092CECDCF5
:1007A00042463033935501230134994604350136CE
:1007B000EDE74B46002B17D0534668460021DB5D22
:1007C0000430435453460137DB5D0122002BC8D16E
:1007D000013E00234246404693551BB0F0BCBB4649
:1007E000B246A946A046F0BD3F2342469355534624
:1007F00001220021DB5D0136ABE701267642E8E706
:100800007C010020F0B5DE4657464E464546E0B531
:100810008FB0012800D14FE1022800D136E1C6484F
:1008200004F0D4F8C54B18680493002800D17CE18B
:10083000C34B9A46C34B0993C34B0A93C34B0B93C9
:1008400053461B68052B00D1B5E0022800D1F4E027
:10085000BC4BBF4F0193BC4BBE4E9946BB4B029362
:10086000BD4B0393BD4B9846BD4B0793BD4B9B4679
:100870000CAB0093BC4B0893032800D1C3E00128C4
:1008800000D1B7E04B461B68012B00D1ABE0B74B62
:100890001D6800F049FF04F0EFFD04F0F7FD23218F
:1008A00003F090F80C00092900DDB6E0B04B3034BD
:1008B0008900CA58E4B2012D00D1B6E0022D00D162
:1008C000DCE0029B1C700024039B1C6043461D68F7
:1008D000079B1B68012D03D0002B00D0F7E0FEE73B
:1008E00043460099326838001C60FFF749FD0098C4
:1008F000FFF710FF027806900198059204F066F861
:10090000059A0099089804F057F9019804F05EF8E8
:10091000069B1A78029B1B789A4238D0049B186871
:10092000013818604B461D603B68002B04D0002244
:1009300004C73B68002BFBD100235A4613600133E8
:100940003360002800D07BE74D468022894952025F
:100950004B681C0014401342FAD1FE23DB030B61E9
:10096000854804F033F8019804F030F8834804F027
:100970002DF80323049A0120136053462C601C6059
:100980000FB0F0BCBB46B246A946A046F0BD5346E8
:1009900052461B6801331360049A1068022869DD0F
:1009A0004A4614603A68002AC1D1594635600A6047
:1009B000052B00D060E780216E4A490253680B4244
:1009C000FCD16F4B694C13612368012B00D190E07F
:1009D000022B00D19FE00323049A00201360002320
:1009E00052461360CCE7674803F0F0FF019803F02C
:1009F000EDFF68E780215F4A490253680B42FCD152
:100A00005F4B13613EE780215A4A490253680B420B
:100A1000FCD1FF231B06136134E7554B37348900A3
:100A2000CA58E4B2012D00D048E72100564804F02E
:100A3000C3F8019803F0CAFF43E780214D4A4902F9
:100A400053680B42FCD1514B414F1361099B414EFE
:100A500001930A9B99460B9B02933F4B03933F4B99
:100A600098463F4B07933F4B9B460CAB00933E4B46
:100A7000089307E700251300013052E7210044489E
:100A800004F09AF8019803F0A1FF1AE73B4C20000C
:100A900003F09CFF2B4B18001D0003F097FF3D480F
:100AA00003F094FF280003F091FF200003F08EFF75
:100AB000280003F08BFFB5E6304C200003F086FFE2
:100AC000204B18001D0003F081FF3348E8E758462B
:100AD000324A33491378002B02D00368012B14D01B
:100AE0000B68012BF6D1039A13602E4B1B683B60F9
:100AF000F5E62D4803F06AFF124803F067FF1F4830
:100B000003F064FF0223236065E7039A1360274B19
:100B10001B683B60E3E6264803F058FF094803F0F2
:100B200055FF164803F052FF55E7064B064D01935B
:100B3000034B9A4609E7C04648690010740100203B
:100B4000600D0020105900105C0D0020200F0020C7
:100B5000880D00201C0D0020140D0020580D0020D1
:100B6000180D0020700D0020B8590010240D002031
:100B70007C01002000002050B8690010205A0010AD
:100B80000000D7FF64690010C05800100000FF8CFF
:100B900064590010C85A0010745A001078010020DF
:100BA000740D00202C0D00201C5B0010100D002087
:100BB000705B001070B586B004F00AF83C493D48FF
:100BC00004F070F8062105001C2000F03FF9012315
:100BD00000211C223748009304F0DCF880235B02DC
:100BE0000293EB1CEA011B031343334A0520134015
:100BF0000393324B0593324B049301F00FFB03F048
:100C000067FD304903F049FD061C03F089FD84B2FD
:100C10000023002C0DD0200003F05AFD011C301CD5
:100C200003F035FD8721C90503F04BFD03F078FD86
:100C3000C3B224041B0223431E4C002120002A00BF
:100C4000029302AB04F0E8F8012223681343236007
:100C500000F046F8FFF770FC8022520263681342EE
:100C6000FCD1FE23DB012361174C2368002B14D138
:100C7000164D174E0BE0280003F0A8FE300003F0DD
:100C8000A5FE280003F0A2FE2368002B05D1FFF784
:100C9000DFFB206001380128EDD82068FFF7B2FDA6
:100CA000002800D0FEE72068FFF7ACFDFAE7C04659
:100CB0003C6B001000002050FFFFFF9F00700020E1
:100CC000000006400024F44A240D002010590010B2
:100CD0000C6A00100000000000000000000000008E
:100CE00000B500F048F800F039F800F04DF800F0D9
:100CF0005AF8002500260024002300BD00B5434A11
:100D0000116843480A1A10D04248091AFFD0424AD3
:100D100011680D00002E17D0A81BFFF725FB01203E
:100D2000FFF716FB3B48012710E000F049F80024CC
:100D3000394A11680E00701BFFF71CFB0120FFF7FA
:100D400001FB3348002701E03248FFE7334A1060D7
:100D500001F0C6FA0120FFF701FB00BD304A11681F
:100D6000742252182F4810602F4A01214903116044
:100D70002E4A1160704700B51920FFF7C9FA1920F3
:100D80000121FFF7C9FA00BD00B51520FFF7C0FA31
:100D900015200021FFF7C0FA1520FFF7C7FA15202C
:100DA000FFF7CAFA00BD1E48016821484018214AD1
:100DB00002601D4A012010601C4A0120106070472B
:100DC00000B501201C4908601C4908681C494018EE
:100DD0001C49086000BD00B501201B490860B842ED
:100DE00004D02418844205D0844206D100BD00B549
:100DF000002600BDFFF71AFB04E001270024FFF7DF
:100E000021FBFFE7FFF7DCFF00BD000028410140A8
:100E1000000080000000400028400540F8400140EC
:100E200008ED00E0FD0C001080E200E000E100E0D1
:100E300040000000D70D0010384005400C40054030
:100E400040420F001040054034400540094A10B5AB
:100E500094464024830063441A68C0006240803492
:100E600014408022520113431C60034B9C46604493
:100E7000416010BD04C0014000400140D0231B066A
:100E80001B6830B50500584243412F205B42834325
:100E90000D48EC088446072028408000814020004F
:100EA0000A4D3C3063448000A40041511B19002AC4
:100EB00004D0802292011343196030BDC0229201F8
:100EC00013431960F9E7C04630410140004001403A
:100ED0000123D0228340120693629361094A402184
:100EE0009446830063441A68C0004A408031114030
:100EF0008022520113431960034B9C460523604432
:100F00004360704704C0014000400140EFF310808F
:100F100072B6034A1368002BFCD0BFF35F8F704793
:100F20002C0100D0BFF35F8F0022024B1A6080F3C8
:100F3000108870472C0100D070B5EFF3108C72B69A
:100F40000D4D2B68002BFCD0BFF35F8F0724CB081F
:100F5000C618C05C01230C40A3401C00044003429F
:100F600007D118433070BFF35F8F2C608CF310886B
:100F700070BD100000F0DAFF2C0100D0024B1868A1
:100F80008007C00F7047C04600C006400021044BD8
:100F9000044ABFF35F8F02C39342FAD17047C04641
:100FA000000100D0800100D0044A1078431CDBB25D
:100FB000172B00D9102313707047C0460C02002075
:100FC00001238340002904D0034A1360034A1360BD
:100FD0007047034A1360FBE780E200E000E100E0B5
:100FE00080E100E0024B10309B688000C0587047E1
:100FF00000ED00E070B50D00EFF3108672B60F4AF9
:101000001368002BFCD0BFF35F8F0D4B10309B6833
:1010100084001B590B4A934203D09D4201D000F03B
:101020009DFF074B9B681D51BFF35F8FBFF35F8F21
:101030000022024B1A6086F3108870BD240100D094
:1010400000ED00E0CD010010F0B5DE4657464E46FB
:101050004546E0B50C0083B0EFF3108A72B6604AE3
:101060001368002BFCD0BFF35F8F102291468144A0
:101070004A465C4B96009B689D595B4B98469D4247
:1010800005D0A54216D0594FEB1B2F2B14D9554B29
:101090009B689D51BFF35F8FBFF35F8F0022504B62
:1010A0001A608AF3108803B0F0BCBB46B246A9466A
:1010B000A046F0BD1D00EAE7012383409B465A4647
:1010C0004B4B1B681A4000925A464A4B1A60BFF3BA
:1010D0005F8FFFF7C8F8031E01901DD12A0001336E
:1010E0009A439068844208D171E04B005B189B00E2
:1010F000FB189868A04245D01A00062151560029D5
:10110000F3DA84426AD0009B002B34D05A463A4B23
:101110001A60374B1A60BAE7814530D12A000123A3
:101120009A4390688442E8D1062151561300002961
:1011300040DB4A00501880003C188046A068986048
:10114000E079D87106202056987100282FDBA488FA
:10115000F81A6405241544440019E0240005400DE4
:101160002402204398805318244A9B001078FB18CF
:1011700098711170C7E75A461E4B1A6087E700F056
:10118000EDFECBE7062159560029D2DA0199002954
:1011900010D1FF3191711A49918018490A789A71DA
:1011A000184ADB1B5B415A43120D0A70ABE7BD20A6
:1011B0000002D7E7144A1549D21A083A5002400DE6
:1011C00001439980124952080A43DA809BE70621BD
:1011D000515613000029ACDA4546DEE71300D5E787
:1011E000240100D000ED00E0CD010010100200202D
:1011F00000E100E080E100E080E200E0220F00205A
:1012000000BDFFFFAAAA00004A02002000F0FFFF75
:1012100000F8FFFFF8B5012504000543FFF723F8A8
:10122000EFF3108C72B6214A1368002BFCD0BFF389
:101230005F8F1F4E2100B7681E4A1F4B891A494114
:101240004B431B0D59B28300F858A8421CD006230B
:10125000D3568B421CD01223D3568B4222D01E234E
:10126000D3568B4220D02A23D35603208B4210D052
:10127000124B1A781970A271BFF35F8F00220B4BCB
:101280001A608CF31088F8BDB2680D48D050EFE7B3
:10129000002043001B189B00D218FF239371094BB9
:1012A0009380E5E70120F4E70220F2E7240100D073
:1012B00000ED00E010020020AAAA0000220F00208A
:1012C000CD01001000BDFFFF054B064A1360064A22
:1012D000136053609360D3601361536193617047EF
:1012E0008080808000E400E004E400E0024B9C4643
:1012F00061448900016070474000003483680B48F6
:1013000010B58446614462441201090159189B18C2
:101310005C684A680120944201D802D00020C0B223
:1013200010BD1A680B689A42F9D8F7E7FFFFFF0F64
:10133000F8B5574645464E46DE46E0B598460CABF6
:101340001C780DAB1B78070091469A460568002C67
:101350005ED1AC7B002C3BD0660029683619033E79
:1013600089194B78AB73002B00D1EB7300238B7082
:101370004B700B702D4BE218BB6812019B184A464C
:101380001A6042465A600A9A9A600B9ADA60002301
:101390008B704B700B706B7B9B46002B2BD022000D
:1013A0005946A8686B6898472A68002816D05B469B
:1013B00058465B005B449619033BB070D118D35C70
:1013C000002B00D073705B460C706B735C4513D0C0
:1013D000F0BCBB46B246A946A046F8BD5B465B00E2
:1013E0005B44033BD3189C709119925D002A00D096
:1013F0005A705B460B706C734A464346387D00F06A
:10140000E3F9051E0AD10E9B002BE1D01D70DFE72A
:10141000660029683619033E8919ABE75346002B4D
:10142000F1D12100386800F025FCECE7FFFFFF0F49
:10143000F0B5DE4657464E4645460023E0B58DB032
:101440000A936A4B8200D75800239B460B9000F00A
:101450006BF902000B007868EFF3108972B64D4605
:1014600001680029FCD0A946BFF35F8F39684E7B25
:101470008C46002E2ED0BC685D49A2467118090129
:101480008A4451460868496804000D00A41A9D4129
:10149000002D5EDD02000B000B9800F095F9002393
:1014A00000229A46002308920993002398467B68FD
:1014B000BFF35F8F5A461A6089F310884346002BAA
:1014C00012D10028C3D10DB0F0BCBB46B246A9462C
:1014D000A046F0BD002300229A46002308920993FB
:1014E000002300209846E2E70A9B51461802304349
:1014F000C047069007917A68EFF3108572B654469C
:101500001368002BFCD0A246BFF35F8F0699079AA1
:10151000002A3BDB114302D03B69002B52D13B68D0
:10152000D97B002905D01A68480041185218033A9F
:101530005670DE73FA68013E935D013393555B4646
:101540003B617B68BFF35F8F5A461A6085F3108852
:101550007DE7002D01D1002C9CD10021604600F0D8
:10156000F1FA53465C681B680893099453469B68DC
:1015700098465346DB689A46FB689B19013B1B78EB
:101580000A931B0203433B61002090E73B69002B59
:10159000C5D0089B099C5B1A9441089809991A00C8
:1015A0002300A14219D899421BD000210491013196
:1015B0000391514601914146380002960091FFF790
:1015C000B7FEBCE700F0B0F8069A079B12184B4133
:1015D000994202D8E9D19042E7D901225242D31769
:1015E000E3E708999142E0D9F7E7C046480D0020AB
:1015F000FFFFFF0F10B5124C6368002B04D00A21C7
:101600001048FFF773FE10BD23000F4A1021206819
:1016100000F098F9032000F07BF8032000F042F975
:1016200003200A4900F08AF8FFF7BEFC084B9C46ED
:10163000032360442375074B80006060DC60DEE7B5
:1016400058020020680D0020FD1200103114001017
:1016500040000034480D0020F0B5D6464F464646BF
:10166000C0B5EFF305823F23134018001038EFF3A5
:10167000108C72B620490A68002AFCD0BFF35F8F35
:101680000122170087401D4C1600A24667631C4CC0
:101690002578A0462C00C4402640224215D0524650
:1016A000566A184A8400A258964218D34246164BEE
:1016B000BD43E3581570BFF35F8F00220A608CF3BF
:1016C0001088002B06D0984704E0BFF35F8F0E60B0
:1016D0008CF31088E0BCBA46B146A846F0BD0B4A70
:1016E0009B00904643441A681A60BFF35F8F002343
:1016F0000B608CF31088EDE7280100D00040054016
:10170000230F0020780D0020B00C0020D03F0540B2
:1017100010B5034B01001800024AFFF70DFC10BD85
:10172000210F00204C6B0010034B596A0A00986A85
:10173000596A8A42FAD170470040054070B50400EA
:101740000D00EFF3108672B61A4A1368002BFCD016
:10175000BFF35F8F002D1BD02000FFF743FC16491D
:1017600081420AD02000FFF745FC01212000FFF74D
:1017700027FC0123A340114A1360114BA400E5503C
:10178000BFF35F8F00220B4B1A6086F3108870BD89
:101790000121A1400A4BA200D5500A4B20001A7823
:1017A0008A4305491A70FFF74FFC00212000FFF71C
:1017B00007FCE5E7280100D0591600103860054005
:1017C000B00C0020230F0020F0B54F46D646464609
:1017D000C0B507002E4C616A0D00A66A616AA94275
:1017E000FAD18B4208D805D00120E0BCBA46B146F8
:1017F000A846F0BDB242F7D9EFF3108A72B6254879
:1018000001680029FCD0BFF35F8F0125BD4022494C
:101810001F4C8846097889462943C9B28C464146FF
:1018200060460870391D890065630A511B49B8007C
:101830004350216A0020294219D0616A0800A66A33
:10184000616A8142FAD18B4219D801D1B24216D8CD
:10185000CC450BD00E4B1F221D625D6301233A4025
:1018600093400F4A136043464A461A700120BFF363
:101870005F8F0022074B1A608AF31088B5E70020BB
:10188000BFF35F8F0022034B1A608AF31088ACE726
:1018900000400540280100D0230F0020780D0020D3
:1018A00080E200E0EFF3108C72B60A490B68002B5F
:1018B000FCD0BFF35F8F01238340074A07481362C0
:1018C00002789A430270BFF35F8F00230B608CF3A2
:1018D00010887047280100D000400540230F0020E9
:1018E00070B505000E001400002923D0002A12D084
:1018F00080686B689847296800280ED063001B1920
:101900007200033B9219CB18033A9E7088188A5CC8
:10191000002A11D10470300070BD73009B19620061
:10192000033B1219CB18033A9C7088188A5C002A72
:1019300005D106702000EFE75A700470EBE75A708B
:101940000670F7E730B583600023CCB243730133F0
:10195000047342608373C4730D000068012C06D9C0
:10196000421C0133DBB2137003329C42F9D1FF21D8
:1019700029404B005B18C01800230338437030BD6A
:1019800070B505000C1E07D0630001681B19033BEE
:10199000CB185A78002A01D1200070BD5000801861
:1019A0000338091800204E7848702100587028002C
:1019B000FFF796FF310004002800FFF7E1FF060063
:1019C000002C26D00028E7D021003200A8686B68E0
:1019D0009847296800280ED073009B196200033BCA
:1019E0001219CB18033A9C7088188A5C002A00D020
:1019F0005A700670D0E763001B197200033B9219FE
:101A0000CB18033A9E7088188A5C002A00D05A705E
:101A100004703400C0E7C046F8B557464E46454608
:101A2000DE464C00E0B5641817000268033C050070
:101A3000105D13190E009C46002852D043009846B2
:101A40001B18033BD31859788A46002919D1002F57
:101A50000CD0EC7B002C50D063001B19D318033B37
:101A60005E70EE73434619180339531800229A70BA
:101A7000002362465370F0BCBB46B246A946A0465E
:101A8000F8BD490051440339521851788846002165
:101A9000517089465970524601002800FFF720FF17
:101AA00043468246002B07D05B0029684344033B32
:101AB000CB185A78002A2CD1514642462800FFF70D
:101AC0000FFF0100002F1AD0A4462A68EF7B944430
:101AD000002F04D07B00DB19D318033B5E70EE733C
:101AE00010E0002FC4D0E97B002910D04B005B1818
:101AF000D318033B5E70EE73BAE7EE73B6E7A44605
:101B00002A6894440029B3D04B009846AAE7EE73A4
:101B1000AEE75000801803380918487883464846D5
:101B20004870587041462800FFF7DAFE5946804653
:101B30002800FFF725FF414602002800FFF7D0FEEE
:101B40008046B9E7F8B557464E464546DE46E0B50D
:101B5000467B02687500AD19033D0F00515D5319B6
:101B600004009C46002953D04B0098465B18033B69
:101B7000D3185878824600281BD1002F0CD0E57B63
:101B8000002D51D06B005B19D318033B5E70E673D8
:101B9000434658180338131800229A7000236246EF
:101BA000300053706173F0BCBB46B246A946A046F4
:101BB000F8BD400050440338121850788046002089
:101BC00050708146587052462000FFF789FE434608
:101BD0008246002B07D05B0021684344033BCB18AF
:101BE0005A78002A2CD1514642462000FFF778FE51
:101BF0000100002F1AD0AC462268E77B9444002FE6
:101C000004D07B00DB19D318033B5E70E67310E051
:101C1000002FC3D0C07B002810D043001B18D3185E
:101C2000033B5E70E673B9E7E673B5E7AC4622683E
:101C300094440028B2D043009846A9E7E673ADE784
:101C40005000801803380918487883464846487081
:101C5000587041462000FFF743FE59468046200059
:101C6000FFF78EFE414602002000FFF739FE804656
:101C7000B9E7C04670B5050000292CD0437B8B42E4
:101C80002ED04C0000686418033C0419A278002A86
:101C900021D053009B18033BC25CC6188A4202D174
:101CA0001BE0002A08D053009B18033BC3185A7846
:101CB0008A42F6D162785A70002301222800A3706C
:101CC0006370FFF7A9FE697B02002800FFF708FE9A
:101CD0006873012000E0002070BD63783370EBE78B
:101CE00001221900FFF798FEF2E7C04610B5040084
:101CF000FFF75AF901002000FFF7F8FAFF232371DC
:101D0000BFF35F8F10BDC04610B50400FFF74CF95C
:101D100001002000FFF7EAFAFF23A380BFF35F8FE3
:101D200010BDC046F8B5040006200D0000F076FA9C
:101D3000002844D02A4B2B49E21853425A418023B1
:101D4000DB039C469205284B62441A60274B1A60BD
:101D500010008B689843FBD1214B254AE318594268
:101D60004B4180215B0049000620995200F056FA51
:101D70002900C00001F04EFEC30921D140270121F6
:101D8000260080256162A36200232C36AD01354315
:101D90002B60062000F042FA3900800001F03AFE84
:101DA0006022E36A53400E321A4080235B013343C2
:101DB0001A60104B236310232B600D3BA364F8BD06
:101DC0000D4A934203D900230C4F0D49D8E77F22D7
:101DD0000240013252089F011900BF181300CFE7DB
:101DE0000080FCBF00C0004000E0004000F0004068
:101DF000180F002001030000FEFF0000C0FF3F009D
:101E0000FFFF00002C4B2D4A70B51A602C4A2D4B59
:101E10002D491A6014008B689C43FBD12B4D2C4E2E
:101E2000B54208D2013E761BB60808CD984723007C
:101E30000134B342F9D100F097F8264A214B1A60D9
:101E4000214A9368DB43DB01DD09002BF9D14022F5
:101E5000214B224C224E9A675A671A67DA66B442BF
:101E600008D223682000002B20D00834FFF74CFF55
:101E7000B442F6D31B4C1C4EC022B168200002F0C5
:101E8000BDFCB460FFF782F8FFF71EFAFFF7B2FB64
:101E9000164C174EB44208D2013E361BB60808CC89
:101EA00098472B0001359E42F9D170BD0834FFF7E9
:101EB0001DFFB442D5D3DDE700E00040BFCDFBFEFF
:101EC000FE7F3C0000F0004000C00040F80700200A
:101ED00008080020FFFFFF0100F00140F00700208C
:101EE000F80700200000002000ED00E008080020B6
:101EF0000C080020094A03001068002805D0084992
:101F0000C3188B4207D81360704706480449C318AA
:101F100010608B42F7D901204042F5E70C0D0020FC
:101F200000000420240F002000BEFDE70FB400B520
:101F3000084883B002F04AFD049B002B07D005A996
:101F40001800019101F0ECFC034802F03FFD00BED7
:101F5000FDE7C046706B0010B459001010B5014881
:101F6000FFF7E4FF806B001010B50C2082B000F08A
:101F7000AFF9FFF703F8002810D0864B8648864952
:101F8000864A186059609860D960186159619861F3
:101F9000D961186259625A6202B010BD804CA067C4
:101FA00000F0A8F901227F4B1A60636C012BFCD171
:101FB00003227D4B1A607A4A936B012BFCD10133CB
:101FC00001217A4A7A480093043300F02DF9052361
:101FD000784A00930121784800F026F9774B5A6837
:101FE000FF2A02D8802252005A6080226E4B694C30
:101FF00012011A602169002905D0606901F00AFD0B
:1020000001300138FDD1E0226C4B6D4819680A405F
:10201000026002221968514001320A400421026024
:102020009A681142FCD08021664A09011160802221
:1020300052005A60644B2361644B5968FF2900D8F1
:102040005A6003220121574B1A60604A9368194273
:10205000FCD0E023106803405D480360126803234E
:102060004A4002211340594A036093681942FCD048
:102070008021584B090119608021574B490051605C
:102080006361564B5A68FF2A00D859608022544B2E
:1020900012011A60E169002905D0606901F0BAFCFB
:1020A00001300138FDD1E0234C4A11680B404D4905
:1020B0000B6080214C4B090119608021364B49008F
:1020C0005160E361494B5A68FF2A00D85960802269
:1020D000474B12011A60216A002905D0606901F09E
:1020E00099FC01300138FDD1E023404A11680B40D2
:1020F00040490B608021404B0901196080235B003F
:1021000053608022244BD20223623C4B5968914297
:1021100000D25A6080223A4B12011A60616A00298B
:1021200005D0606901F076FC01300138FDD1E02373
:10213000324A11680B4033490B608021324B090150
:1021400019608023DB025360144B63622F4B5A6883
:10215000FF2A02D8802252005A6080222C4B1201A2
:102160001A60A169002905D0606901F053FC0130B3
:102170000138FDD1E023254A11680B4025490B6049
:102180008021254B0901196080235B005360124BAD
:10219000A36101E710080020006CDC021BB70000FF
:1021A000008000403CB0004030B00040002F685933
:1021B00000800240008C864700C002403080004012
:1021C0003090004030A00040001BB7003C80004031
:1021D0003C9000403CA000404059730754800040B0
:1021E00054B000405490004054A000406080004033
:1021F00060B000406090004060A000406C800040F3
:102200006CB000406C9000406CA0004048800040E2
:1022100048B000404890004048A00040014B80007A
:10222000C058704710080020F8B504000C201700B3
:102230001D000E0001F0EEFB43011B1A9901C91AA3
:10224000C90009188901380001F0E4FB069B290444
:102250001B0319432368002B20DB194B194DE3188E
:102260005A4253418022520194461B03164A63444A
:102270001360164A13601F00AA689743FBD1C0235E
:10228000221D9B01134321222660A0601A60226850
:10229000002AFCDA0822E1601A60F8BD3F232268B8
:1022A0001340B342D9D1A3681B051B0D8342D4D17F
:1022B000EE22E368D20213408B42CED1EDE7C04656
:1022C0000040FDBF00C0004000E0004000F00040C2
:1022D0008023024A9B000343D3627047008005407D
:1022E000024B1A68024B5A607047C046280D002006
:1022F00000800540AA23064A1B0113602F230549CD
:10230000D360054B19605368002BFCDA7047C04658
:102310000040024000B0FA00006002407047C04632
:10232000F8B557464546DE464E46E0B598460A9B08
:1023300006009A460D9B0F00934615009B0710D18F
:102340000B9B0C9A93420CD213005C460B9A9D1A7D
:102350005D4422004346013439002020B047A542A5
:10236000F7D10B9C6319002C09D01D0053462A1B82
:10237000013C185D39004346B047002CF6D10D9B57
:102380009B070ED55B46EC1A0C9BA34209D99946D4
:102390002A004346390020200134B0470135A145C9
:1023A000F6D82800F0BCBB46B246A946A046F8BD08
:1023B000F0B54F464646D646C0B584B098460EABFB
:1023C0001B7894469946129B0D9C109F119E9A076C
:1023D00024D4002E6AD1BC4220D201221A40924657
:1023E000202C00D1CBE00C9A551E302201E0202C8D
:1023F00030D001342A55A742F9D85246002A0DD0D0
:10240000B4420BD20C9A551E3022202C02D126E069
:10241000202C61D001342A55B442F9D1DA0634D5E2
:102420005A0562D4002C5CD10F9A102A00D191E099
:10243000022A00D1A1E030220C9C227001244A46DD
:10244000002A5CD15A0700D47DE02B220C9D2A552E
:1024500001341CE05246002A02D0202E3CD9202410
:10246000DA0614D55A0512D4202F00D197E0202E79
:102470003BD120261F2234000F9D102D00D181E07A
:10248000022D4CD030250C9FBD54202CD7D1039366
:102490000C9B62460093029643460194FFF740FF6F
:1024A00004B0E0BCBA46B146A846F0BD0122150012
:1024B0001D40AA461A4227D04A46002A33D10C3280
:1024C0001A4230D1BC429BD2202C00D08BE7202E68
:1024D000C5D8DA06A4D4DAE72024DA06D7D55A0517
:1024E00003D4A74221D0B4421FD00F9A102A21D082
:1024F000022A10D0202CCAD022000134C2E72D229B
:102500000C9D2A550134C2E7BC4200D386E7202C3B
:1025100000D068E7E1E7202CB9D022000134622521
:102520000C9FBD54E6E7013ECCE7621E012C00D1B2
:102530007AE7A1E79A0616D4202CA8D078220C9D21
:102540002A550134D6E71A07A1D520220C9D2A5519
:1025500001349CE79A060ED478220C9C227030221B
:10256000627002246BE7202C91D058250C9A121926
:1025700015700134BEE75822EFE76222EDE7002A2A
:10258000A7D1AAE7023C9D0604D478250C9F3D55AF
:102590001400B1E758250C9F3D551400ACE71F22ED
:1025A0006AE7C04610B5002800D110BD02F0BCF9A2
:1025B000FBE7C0460B0010B5002802D049681B6835
:1025C000984710BDF0B557464E464546DE46E0B545
:1025D00099B08246894690460993229A239B10001F
:1025E000190001F0E0FC002800D0C8E022982399EF
:1025F0000122D54B524201F0D1FC002800D0BEE0B0
:10260000229823990122D14B524201F0B9FC0028B3
:1026100000D0B4E0229823990022002301F0B0FCFE
:10262000002800D0E9E1229E239F8023269ADB0028
:102630001A400D92269A1A4201D1062324933B0098
:10264000334300D0B4E0269B1B0500D5BFE1002337
:1026500000240A930B94002304250C93259B00244B
:10266000AB4200D95C1B0223269A1A400D92269A8F
:10267000134203D06B426B415B421C400C9B002B0E
:1026800007D00A9A0B9B3000390001F018FC0600B5
:102690000F00229823990022002301F071FC0028EA
:1026A00003D0802109067B181F00269AA84B0096AC
:1026B00001971340099E0493249B0394029342467E
:1026C00033004946504600F0A7F90400002D67D0BA
:1026D0002020269A4946024013005A4253415B4249
:1026E000621C18400A92330022004530D0470C9AF1
:1026F0006F1ED317D4185C40D30F9B46002501E012
:10270000202D13D008AA94461F23200063440A21D9
:1027100001355E1901F07EF93031317020000A2157
:1027200001F078F926000400092EE9D80523069364
:10273000002304930A3303935B46099E029310AB74
:102740000A9A009349463300504605970195FFF7D2
:102750002FFE0D9A0400002A22D04246851A259A9F
:10276000AA421DD9B04657461600220043464946A4
:1027700020200135B8470134AE42F6D810E0269B40
:1027800042460493259B49460393249B504602935B
:10279000229B239C00930194099B00F03DF90400C7
:1027A000200019B0F0BCBB46B246A946A046F0BD19
:1027B000684B78009C46400D604401F007FC664A77
:1027C000664B01F09AFB664A664B01F06FFB664A66
:1027D0003B031B0B1A4304000D00644B1100300037
:1027E000002201F05AFB624A624B01F086FB0200B4
:1027F0000B002000290001F059FB01F0FFFB0C90B9
:1028000001F0E4FB5C4A5D4B04000D0001F075FB38
:1028100000225B4B01F04AFB01F0F0FB594A834672
:10282000594B2000290001F068FB040058460D00B8
:1028300001F0CCFB554A564B01F05FFB02000B0048
:102840002000290001F029FB02000B000A900B91E7
:1028500001F053FB04000D000A980B9902000B00D5
:1028600001F024FB00220E900F914A4B200029001A
:1028700001F025FB0022484B01F018FB02000B0081
:102880002000290001F01BFB0022444B01F00EFB4D
:1028900002000B002000290001F011FB0A9A0B9B9B
:1028A0000D0080210400C905002001F0F6FA0200A5
:1028B0000B002000290001F0F9FA394C02000B004E
:1028C0000E980F9901F0FBFA5C440022264B01F0B0
:1028D000EDFA2305002201F010FB04000D000200B8
:1028E0000B00300039000A940B9501F049FB0028D9
:1028F0005ED123002A00C6250C9963318D42AD417B
:1029000026996D420435090500D4A7E6134364D027
:1029100030003900234A244B01F038FB002807D04F
:10292000002230003900214B01F02AFB002854D14D
:10293000249B002B00D191E60D9B5A1E9341249AB3
:10294000D31A24938AE6C046FFFFEF7FFFFFEFFF15
:10295000FFF7FFFF01FCFFFFFB799F501344D33FBC
:10296000B3C8608B288AC63F0000F03F0000F83FE4
:1029700061436F63A787D23F71A379094F930A40E0
:102980000000E03F1655B5BBB16B0240EF39FAFECF
:10299000422EE63F00002C4000002440000018407A
:1029A000FF0300002D431CEBE2361A3F80842E41CA
:1029B0000C9B0022013B0C932000164B290001F0D8
:1029C0007EFA0A00010003000A910B9293E70023AC
:1029D00000240A930B9400230C93249A0C9B9A4294
:1029E00014DDD31A013B24938023269ADB001A437B
:1029F0000023002526920C9330E68022120694468E
:102A0000229B1E00239B63441F000EE60023249399
:102A1000EAE7C04600002440F0B54546DE464E4693
:102A20005746E0B595B08B46904699461E9A1F9B37
:102A30000A9019001000209D01F0B5FA002800D07E
:102A4000B0E11E981F990122C74B524201F098FA3B
:102A5000002800D037E11E981F990122C34B524233
:102A600001F09CFA002800D0A7E01E981F990022D0
:102A7000BF4B01F093FA002800D088E01E981F9900
:102A80000022BC4B01F07CFA002800D07FE01E98A9
:102A90001F990022002301F073FA002800D0FAE009
:102AA00000230B938023229C229ADB001C401A42B5
:102AB00000D102E1092D00D87EE106A98C462C0048
:102AC000172200233021093C62440133D154EF1A0C
:102AD000202B00D132E1A342F7D10022A44B069271
:102AE00007931E981F9901F089FA050001F06EFA0C
:102AF00002000B001E981F9901F0CFF9069A079B60
:102B000001F0FBF90890099101F09CFA060001F030
:102B100059FA02000B000898099901F0BEF9002249
:102B2000954B0890099101F039FA002800D1D2E0C4
:102B30000136300001F046FA069A079B01F026FAAA
:102B4000002801D000260135AA46002F00D098E0C9
:102B5000280001F03BFA02000B001E981F9901F0BB
:102B60009CF9854B002206000F0001F009FA0CAB1E
:102B70009A46002845D10022300039007E4B01F0F2
:102B80000DFA00283DD1EB073BD5013539E0229BFA
:102B900042460493219B594603930A981E9B1F9C0F
:102BA0000295009301944B46FFF70CFD15B0F0BC65
:102BB000BB46B246A946A046F0BD229B5B0767D440
:102BC00003226E4B22990192039121990291009365
:102BD00042464B4659460A98FFF7A2FBE6E706AA8B
:102BE00094461723280063440A2101341E1900F07B
:102BF000E9FE3031280031700A2100F0E3FE051EA5
:102C000076D0202CEBD10323229A1340012B1DD127
:102C1000219B002B1AD00B9B002B00D0BBE0229AEB
:102C20000C33134200D0B6E0219BA34200D887E0CA
:102C300006AB9C4617223023624404E021990134FC
:102C400013558C4259D0202CF8D12024229B01947A
:102C50000393219B02935346B9E706AA9446172390
:102C60000A216344300001341D1900F0D3FE3031D5
:102C7000297030000A21013F00F0CCFE092E46D910
:102C80000600202CE9D155460CAB20249A46B8E723
:102C900004223B4B96E71E9A1F9B0020002101F067
:102CA000FCF801230B938023229C229ADB001E90C8
:102CB0001F911C401A4200D0FCE60022314B06272F
:102CC000069207930DE7229B0393219B0293042313
:102CD00001932D4B7BE7002208980999264B01F0C0
:102CE0004FF9002800D02FE7002E4FD101362BE7F7
:102CF0000323229A1340012B68D0202CA6D00B9BD3
:102D0000002B1FD02D235246135501349EE7554604
:102D1000202CB9D030223B19002F4BD0172006A908
:102D2000013409180A55202CAED09C42F6D10CAAC9
:102D300092462E2251465C1CCA5462E72024CCE6FF
:102D4000202C83D0229B5B0708D4229B1B0700D436
:102D50007CE7202352461355013477E72B23524654
:102D60001355013472E7C046FFFFEFFFFFFFEF7F0F
:102D700065CDCD4165CDCDC10000E03F946B001025
:102D80008C6B001080842E419C6B0010F30700D4E4
:102D9000DAE60136D8E6219B013B2193A34200D914
:102DA00046E7AAE7229B0393219B02930323019307
:102DB000084B0CE72300BAE7074BEA009B185C6856
:102DC0001B682F000693079400248AE6219B002BA2
:102DD00093D020E7986B0010406D0010F0B5DE46F0
:102DE00057464E464546E0B59FB01C00289B93468B
:102DF0000A93CC4ACC4B8A4609901A60002900D12C
:102E00004DE1002320789946002800D14FE1C74BBF
:102E10004D460893C64B0D930AE02A006E1C5B4694
:102E2000099D5146A847350001342078002872D00A
:102E30002528F2D110239946083B9846043B0021EF
:102E40009C4602270134207826000300203BDBB299
:102E5000102B03D8089A9B00D3589F460300303BA1
:102E6000092B6ED900272A2800D18AE000230B9372
:102E70002E2800D176E00300683BDBB2122B1BD872
:102E8000AC4C9B00E3589F46012301341943DAE719
:102E900039430134D7E7634601341943D3E74B463E
:102EA00001341943CFE7434601341943CBE780236C
:102EB0005B0070781943013667280AD824281FD987
:102EC0000300253BDBB2422B1AD80D9A9B00D35846
:102ED0009F460300693BDBB20F2B11D801249C40B5
:102EE000954AA446904614400C94624644462242B9
:102EF00000D025E20A2B00D101E1072B00D1D8E058
:102F0000099C2A005B465146A04770786F1C741CD0
:102F10003D0000288CD1A9462C00CB4503D80123C5
:102F20005B425B4499465B464A4651460020099DF8
:102F3000A84720001FB0F0BCBB46B246A946A04639
:102F4000F0BD0027BB00DF1901367F003F18307845
:102F5000303F0300303B092BF4D900230B932E287C
:102F600000D088E780237078DB0019430300303BF2
:102F7000741C092B00D82CE12A2800D138E1260046
:102F800079E70A9B80CB002F03DB60780A93661CED
:102F90006CE70222607811437F420A93661C65E762
:102FA000672800D1C8E1472800D104E2452800D1B4
:102FB00004E207200A9B04910733834319000B9A0C
:102FC000039702920CC90998009201930A912A0072
:102FD0005B465146FFF7F6FA741C050025E770784A
:102FE0006C2800D10DE280235B001943013663E7B2
:102FF00080239B007078194301365DE7707868285C
:1030000000D1F9E180230136194355E7462800D164
:103010008FE107200A9B04910733834319000B9A21
:10302000039702920CC90998009201930A912A0011
:103030005B465146FFF7F0FC741C0500F5E62A00DC
:10304000099C5B46514625206F1CA0473D00741C1F
:10305000EBE6890700D4DEE10A9B2A0098466B1C48
:103060009946434601CB51469846099C5B46C0B2FF
:10307000A047ED19012F00D893E24C46B1465646C1
:10308000099F22005B46013431002020B847AC4242
:10309000F7D1B24643464E460A93741CC5E6274B09
:1030A0002078099300239946002800D0AFE6002439
:1030B00033E70A9B1A0008CA9046002B00D1A7E00C
:1030C000212008430EA98C461F2262440F27AC46DC
:1030D000814615000C9C02E0202C0CD01300380017
:1030E000184001003731092800D807390134295523
:1030F0001A090F2BF0D8654648460C9494E00A9BB9
:103100001A0008CA12920B9A002A7BD102241A785C
:103110006442002A1DD0013418199C461C0003008B
:1031200010E0C046DD2D0010200D0020A46B001023
:10313000346C0010E86B0010419000001D2300105B
:103140009C4203D0607801340028F9D16346E01A2C
:103150000C908020C00084460840804660460142B2
:1031600004D00B980C9C844200D90C900220844619
:1031700008400A906046084200D189E1101E00D143
:1031800070E14246002A00D11BE10B9A5B1B90467E
:10319000A84444462A00B84699465746B246099E76
:1031A00009E05B463900551CB0474B46585D002886
:1031B00000D12CE12A009442F3D156462500BA46AC
:1031C00047460A9B002B00D04CE1129B741C0A93CB
:1031D0002BE6002293009B185B0001341A1820781C
:1031E000303A0300303B092BF4D926000B9242E61B
:1031F0000A9B023604CBD043C01702400B923078B2
:103200000A9338E61A78002AA3D00B98441E82E766
:103210001023080080279843113318430B00FF0048
:103220003B40394200D14DE7082305930B9B2A0010
:10323000049310230393002302930C9B06900193A5
:1032400016AB009351465B460998FFF7B1F8434629
:103250000500741C0A93E8E5622800D1A6E158280D
:1032600000D1B1E180230A00DB001A4090461942E8
:1032700000D189E1112399438C46802362469B004B
:103280001A40100062461A4200D023E180236446AF
:103290005B001C401A4200D032E263465B0600D558
:1032A0006BE163460A991B0600D4DBE208C91BB236
:1032B000DA179818504080B20A91DA0F0C92002B5E
:1032C00000D118E280460EAA91461F234B44139565
:1032D000E14645461297B0461E0001E0202C0FD073
:1032E00028000A2100F096FB01343719303139707B
:1032F00028000A2100F08EFB2F000500092FEDD8D1
:103300004646CC46129F139D634606930B9B05973A
:1033100004930A2303930C9B029316AB2A00019497
:10332000009351465B460998FFF742F8741C05006C
:103330007BE5202319436CE680231B01194338E603
:10334000782800D07CE180230A00DB001A409146F7
:10335000194200D1A5E20D239943080003330C93D1
:10336000802302009B001A409046184200D078E16A
:10337000802304005B001C40184200D007E2430693
:1033800000D453E2FF210A9B04CB0A4090460A93E3
:103390004346002B00D026E1103398434B46002BC8
:1033A00000D120E100240B9B069004930C9B059711
:1033B00003930023B0E780231B0119432023194303
:1033C000F7E55B1B99460C9B099C98465B46B34608
:1033D0005646BA461F002A003B003100A0474B4624
:1033E0000135585D0028F6D143460C933B00574603
:1033F000B2465E469B46E4E6C023B07819430236E7
:103400005AE5C0239B00B0781943023654E556466E
:10341000BA464746D5E6012F00D832E26B1E9846E1
:10342000B8442C00A9464546B8465746B246099EC0
:1034300022005B46013439002020B047AC42F7D16E
:103440000A9B564601CBBA464746984622005B4641
:10345000099C5146C0B2A0474D464346ED190A9318
:10346000741CE2E40C9BA8469F4200D8ADE644469B
:10347000B04656467D19099FED1A22005B4601347D
:1034800031002020B847AC42F7D1B24646469CE610
:103490000C98874200D8F0E1424698467919B9461F
:1034A0005746B246099E0C1A0C922A005B4601351B
:1034B00039002020B047A542F7D15646BA464F46BC
:1034C00043460C9A90467A1C0C921A78101E00D033
:1034D00057E67AE60822072191460A9B07338B4379
:1034E00099444A460ACB0C000A921C43DA0F002C7E
:1034F0004ED0D817040010904C4011900E941098A4
:1035000011990C005C400F940E9B0F9C1B1A8C4170
:103510000E930F940EA988461F230024434412974C
:10352000B046270013951E000E9C0F9DE1460C929D
:1035300001E0202F10D0200029000A22002300F0F3
:10354000ABFA013730322B00F2550D002200040097
:10355000002BEED1092AECD84646CC460E940F95A6
:103560000C9A3C00139D129F634606930B9B059794
:1035700004930A2302920393CFE6FF230A9904C916
:10358000134018000A9198E6102399438C4674E67C
:1035900043460024002BE7D1002300240E930F9410
:1035A000B8E743464D460A93741C3EE480230A0064
:1035B000DB001A409146194200D140E10D239943A6
:1035C0000B3B08000C93CBE680230A00DB001A407B
:1035D0009146194200D162E10D2320209943033323
:1035E00008430C93BCE66123810600D541230EA954
:1035F0001F228C46DBB262440A3B13971495814626
:1036000045460C9FB0461293160008E03033DBB2FB
:1036100001343355BD420ED3202C0CD005003900A7
:10362000280000F0F7F9CBB20929EFD9129A944695
:103630006344DBB2ECE746464846139F149DB2E66E
:103640006F2800D03CE10C230800984380230A0037
:10365000DB001A409146194200D02AE108230C935E
:103660007EE60A99FA3BFF3B0731994301339C46BA
:103670008C4463464A680A930B6890469C46134301
:10368000191E06D14B46103100248843002B00D070
:1036900089E66121830600D541210EAA91461F23A8
:1036A0004B449946C9B20C9B0A3913971495159649
:1036B00045464E46002467469846814612910CE0E6
:1036C0003032D2B2002301343255AB4200D1BCE0DB
:1036D000202C00D1BCE007000D004246002338003A
:1036E000290000F0D9F9D2B2092AE9D9129B9C46E7
:1036F0006244D2B2E6E74346002B00D004E6E2E59E
:103700000A9C08CCDA0F1392002B00D1A5E0D91740
:103710005B184B4098460EAA91461F234B440C95CC
:10372000A14645461296E04606001C000A9701E0B5
:10373000202E0FD028000A2100F06CF90136A719BD
:103740003031397028000A2100F064F92F0005009B
:10375000092FEDD8C4464C4630000A9F0C9D129E9E
:10376000634606930B9B2A0004930A230393139B3F
:103770000190029316AB009351465B46099805975A
:10378000FEF716FE0A940500741CFFF74EFB0A9B19
:1037900010CB1493002C04D1102398434B46002BDC
:1037A0002CD16123810600D541230EA91F228C460E
:1037B000DBB262440A3B12971395814645460C9F43
:1037C000B0460A93160008E03033DBB2013573557A
:1037D000BC420ED3202D0CD004003900200000F094
:1037E00019F9CBB20929EFD90A9A94466344DBB29E
:1037F000ECE748464646129FA846139D0B9B2A00BD
:1038000004930C9B06900393002302934346019379
:1038100016AB009351465B4609980597FEF7C8FD25
:10382000149B05000A93741CFFF7FFFA03061FD5CB
:103830000A9B02CB09040A0C90460A93A8E50C23C4
:1038400099430A3B08000C938AE5B84500D83FE746
:103850004846139F149D159EA5E54346002B00D0B6
:103860007EE758E708C9DA17981850400A9124E50E
:103870000A9B04CB90460A938AE5010001310C9122
:1038800024E60A9F6C1C01CF2A005B46099D514625
:10389000C0B2A84725000A97741CFFF7C6FA202378
:1038A00019430C23994300239946103308000C93C5
:1038B00056E508238C460C930D23604698434FE54C
:1038C00010230A009A439446692808D180230A00ED
:1038D000DB001A409046194200D1CEE4CAE41C2312
:1038E0000800984380230A00DB001A4091461942E1
:1038F00002D10A230C9333E50A230C93DCE7C0467C
:1039000000B585B003910121029000930348130094
:103910004A4202A9FFF762FA05B000BDB5250010C2
:1039200010B5094A0300146884B0002C08D00122A5
:1039300000910648524203A9A047012004B010BDDF
:1039400001F044F80020F9E7200D0020A525001023
:1039500001480421014B18478002002081390010E2
:10396000142310B50100188804331B88984710BD34
:10397000162310B50100188802331B88984710BD24
:10398000F8B54746CE4680B50F1E19D01423994688
:10399000043304000025012698464B461888434608
:1039A00021681B88984701C4431E98410135404255
:1039B0000640AF42F1D13000C0BCB946B046F8BDB8
:1039C0000126F8E7124A936F9B0815D29066D166DC
:1039D000002905D0FFE7FFE7FFE7516F106F704741
:1039E00004B580210906C2175140002800D0C84301
:1039F00001F04EFF002104BDF0B5146E556E576FF7
:103A0000166FFFF7E3FF1466556657671667F0BD3C
:103A1000000000D0114A936F9B0813D210665166C4
:103A2000002905D0FFE7FFE7FFE7516F106F7047F0
:103A300004B5002801D00020C04301F029FF002177
:103A400004BDC046F0B5146E556E576F166FFFF784
:103A5000E5FF1466556657671667F0BD000000D095
:103A600094464E4A926F9208624601D230E0C046B8
:103A7000F0B54A4EB56F6D08FCD3346E756E776F36
:103A8000366F00F025F89446444A14665566576729
:103A900016676246F0BDC0469446404A926F92084F
:103AA000624601D258E0C046F0B53C4EB56F6D0895
:103AB000FCD3346E756E776F366F00F04DF8944618
:103AC000364A14665566576716676246F0BDC046AB
:103AD000002B24DB11D000293EDA00B5C943404257
:103AE00000D1013100F038F8C943404200D1013122
:103AF000DB43524200D1013300BD002AEBD1002844
:103B000001D1002905D00020C90FC90701D1C04348
:103B1000410800B501F0B4FE0022002300BD00B54D
:103B200000290ADBDB43524200D1013300F014F8D4
:103B3000C943404200D1013100BDC943404200D1D8
:103B40000131DB43524200D1013300F005F8DB4381
:103B5000524200D1013300BD002923D1002B18D1DE
:103B6000002A0CD0BC460D4F38667A66002100232F
:103B7000FFE7FFE7FFE77A6F386F67467047002877
:103B800001D00748010000B501F07AFE00220023B1
:103B900000BD02000B00002000217047000000D093
:103BA000FFFFFFFF002B00D0BFE0130C28D1002A3D
:103BB000E7D080B4114F39667A66FFE7FFE730B48B
:103BC000040C7B6F396F1B0423433B667A66FFE767
:103BD000FFE7FFE7C04684B27B6F3D6F1B042343C2
:103BE0003B667A66FFE7FFE7C04600232C042D0CF6
:103BF0007A6F386F00196941B0BC7047000000D07F
:103C0000F0B594460025140E01D112020835140FA8
:103C100001D112010435940F01D192000235D40F65
:103C200001D152000135D40B0134254F7C66254C5F
:103C30003C660E0C93B2FFE7FFE7FFE73C6F66437D
:103C4000360C7703BE467343DF0B5B04C01AB941E1
:103C5000130C7343DB18C91ACE086643360CB644FE
:103C600093B273431F0F1B01C01AB941130C734366
:103C70001F0B1B05C01AB941860D8F023E436643D8
:103C8000360C092D24DB520A7243801A7703460A48
:103C90006643360C16235B1BDE40DF40BF196446CB
:103CA0006643821B7046043506330100D940A840A4
:103CB000C01900D30131A24206D20023F0BD00009A
:103CC000000000D0FFFFFFFF121B0130F3D3F1E72C
:103CD00009277F1BFE406446A2B27243801A00D2BD
:103CE0000139220C7243130C1204821A99410B0001
:103CF0007046043513370100F940A840801900D3FD
:103D00000131002B02D1A2420AD2F0BD013000D312
:103D10000131121BFAD2013BF8D1A24200D2F0BD10
:103D2000013000D30131121BF7E7F0B51C0C00D0B5
:103D300080E00CB400251C0A04D11B02160E33438C
:103D4000120208351C0B04D11B01160F334312015C
:103D500004359C0B04D19B00960F3343920002352F
:103D6000DC0B02D192185B4101351C0097186441AD
:103D70000134464F7C66464C3C660E0CFFE7FFE77D
:103D8000FFE7C0463C6F6643360C7703BE4697B2EA
:103D90007743C01B00D20139C01B00D201399FB24A
:103DA0007743C91BC91B170C77437E04FF0B801B8D
:103DB000B941CE086643360C0C2D33DBB644120BEA
:103DC0001F053A431B0B97B27743C01B00D2013942
:103DD0009FB27743C91B170C77433E043F0C801BEF
:103DE000B941860D8F023E43664329277F1BFE4063
:103DF0000C3D7746AF40BF1930BCA2B2ABB27243A4
:103E00007343801A9941220C7243130C1204801AD6
:103E1000994102000B000137001BA941F9D2781E1D
:103E20000021F0BD0C277F1BFE4077467F0BAF4083
:103E3000FF19E0E700245D1C07D0144F7D6639664A
:103E4000FFE7FFE7FFE7FFE73C6F95B29EB26543F0
:103E50006643401BB141150C1E0C65436643360496
:103E60002F0C3E432D04401BB141994204D2020065
:103E70000B0020000021F0BD01D19042F7D3801A41
:103E8000994101349942F2D3F6E70000000000D0D6
:103E9000FFFFFFFF48404140484018B41B4B5B68A0
:103EA000FC46019308BD04DF2741001018B4174BEE
:103EB0001B68FC46019308BD00DF314100109446A9
:103EC000134A926F920809D2624618B40F4BDB680E
:103ED000FC46019308BD0CDFE94300100C4AF0B525
:103EE000146E556E576F166F6246FFF7EEFF084A65
:103EF0001466556657671667F0BD18B4034B9B6888
:103F0000FC46019308BD08DF8D42001038090020EF
:103F1000000000D0FFB550404240504059404B4057
:103F2000594000E0FFB5154F4C00640D03D0BC4272
:103F300004D10C0314D80020090D09055C00640DA0
:103F400003D0BC4204D11C030AD800221B0D1B0560
:103F500001264B4009D44B4003D58B4200D182420D
:103F6000FFBD9942FCD19042FFBD0B43DB180343D8
:103F70001343F5D0C9434918FFBD0000FF070000F7
:103F800000B5FFF7CFFF804100BDC04600B5FFF789
:103F9000C1FF01D9002000BD012000BD00B5FFF721
:103FA000B9FF804100BD012040054A00121804D825
:103FB0005A00121801D800207047012070470020D5
:103FC000704700000021002805D17047C117484004
:103FD000401AFAD0C90713B5064B1B6898470CBCAA
:103FE000441CA2401005120B0349091B0905194383
:103FF000114310BD640D00201F04000010B54C00DB
:10400000620D8023D218DB00D21A5B057E2A10DDF8
:104010009E3A13DACC170903490819435242D1409A
:10402000640001341532202A05DAD0400843604389
:1040300010BD002010BD0846604310BDC80FC01859
:10404000013810BD18B4044B5B6AFC46019308BDEF
:1040500024DF99450010000038090020132370B5B3
:104060001D78012D15D010DD1D48FFF781FC1D4C7A
:1040700001008022200000F0C1FB022D2DD01A4843
:10408000FFF76EFC194B186070BD194B154CA364FB
:10409000F5E7174B134C23606360A360E360236173
:1040A0006361A361E36123626362A362E3622363EA
:1040B0006363A363E36323646364A364E3642365CA
:1040C0006365A365E36523666366A366E3662367AA
:1040D0006367A367E367A364D1E7054BA364CEE7F7
:1040E00053440000380900204C330000640D0020C8
:1040F000F540001007B5604601880A0A0230DF2A41
:10410000FAD1C9B2820804D302884088000410435F
:1041100000E00068014A5050039007BD38090020B4
:104120000FB403BC0CBCF0B50124E407634000E00D
:10413000F0B50C0DCF0F661E3605891B640503D341
:10414000C943404200D30131640D03D0661CF60A16
:1041500007D0E41B00207F00791C89078912803C6E
:1041600024031D0DDF0F6E1E36059B1B6D0503D34B
:10417000DB43524200D301336D0D03D06E1CF60AAF
:1041800007D0ED1B00227F007B1C9B079B12803D0C
:104190002D032F1B661B58D4A446202E46DA203749
:1041A0001400BC401D00BD40F24033412A4380183A
:1041B0005941CB0F05D0C943C0430022644250414E
:1041C000514162464D0D28D10D0D07D100281FD059
:1041D000241940414941013A0D0DF9D0640006D33C
:1041E000013000D30131002C01D140084000013AD8
:1041F0000BD4941CE40A04D112051144DB071944C2
:10420000F0BDD907204B194300E0D9070020F0BDCD
:104210000029DDD1002CDBD1F0BD0132C6074008FA
:10422000CD0728434908002EE1D0D9E73C2E29DAF2
:10423000203E40371400BC4000D00124F24014431B
:104240001A00BB401C43D317ACE7AC46202F08DA5A
:1042500020360400B4400D00B540F84039412843F1
:10426000A5E73C2F0CDA203F40360400B44000D0D4
:104270000124F84004430800B1400C43C117EAE7A9
:1042800010001900002494E70000F07FF0B50C0D39
:10429000661E3605891BE60A6405640D02D0651C9E
:1042A000ED0A04D0002001210905803C2403A44626
:1042B0001C0D671E3F05DB1BE70A6405640D02D079
:1042C000651CED0A04D0002201231B05803C240359
:1042D0007740644497B484B296B27443070C7E432B
:1042E000150C6F4380B26843361802D301200004D6
:1042F0003F183004350C00197D41844688B29AB2CB
:1043000050430C0C62431F0C7C438EB27E439219C7
:1043100002D301263604A4191604170C3618674177
:1043200001BC81B29AB25143040C62431B0C5C4342
:1043300080B25843121802D301200004241810043C
:10434000130C401863412D185E410020474106BC04
:1043500088B293B258430C0C6343120C544389B295
:1043600051435B1802D301210904641819041A0C83
:10437000091862416D1856410020474118BCF902E6
:10438000720D1143F0026A0D1043ED020A0D03D1C4
:104390006D1940414941013B124E9B1B7600B342CF
:1043A0000ED26D0007D301300026714166463543B9
:1043B00001D1400840001B05C918E4072144F0BDA5
:1043C0000BDA013306D1013004D101314F0D01D098
:1043D0004908F2E7E1070020F0BD01363105002071
:1043E000EBE70000FF030000F0B51C0D671E3F0562
:1043F000DB1BE70A6405640D02D0661CF60A04D0D4
:10440000002201231B05803C2403D0252D06002615
:10441000F6432E661E096E66CE0FF619B4464900A5
:104420004F0D02D07E1CF60A03D000200021403F31
:104430003F033E1BB600B444013F7F05C91B49083A
:104440002E6F013676089C02950D25437543ED13BA
:104450007543AD1301356D10F603761B0CB4CC0219
:10446000450D2C43A2B2B3B25A43270C7B43350C03
:104470006F43A4B26C431B1902D3012424043F19D7
:104480001C041D0CA4187D4124196D41009A91B2A1
:10449000ACB26143170C7C432B0C5F4392B25A437E
:1044A000A41802D301221204BF182204230C5218AC
:1044B0007B41019C6C431B19520ED9010A434401F4
:1044C000A01A81B2B2B2514303145A43360C73435B
:1044D00087B27743D617D21900277E4136049B193D
:1044E0001704160C7F185E417316ED18F3010026B1
:1044F00080337541A90F06D16400690AE8055B0A9B
:10450000184309D22FE00422944480337541A90A4C
:10451000A8059B0A184326D3404149412404009A28
:10452000019B0D005543641B4343E41A95B286B2C8
:104530007543170C7E43030C5F4392B25A43B6187F
:1045400002D301221204BF183204330C52197B41EA
:1045500052429C41002C02D40022013051414008BB
:10456000CA071043490802B06246D7079210084BA9
:10457000D218084B9A4203D212058918C919F0BD06
:104580000020002A01DC3900F0BD01331905F5E7F0
:10459000FD030000FE070000002200B5203200F0FD
:1045A00004F8080000BD000000220B150AD410B565
:1045B000944600F031F81414013400DA0021CB17CE
:1045C000144C20470020002170476244343A0CD438
:1045D0000C2A07DA04009140904052422032D44025
:1045E000214310BDD843D94310BD203207D40C4617
:1045F0009440524220321141D040204310BD080067
:10460000C917203203D452422032104110BD180085
:10461000190010BDCB4500100A0DCC0F531E1B0511
:10462000C91A520503D3C943404200D30131520D88
:1046300003D0531CDB0A07D0121B00206400611C4E
:1046400089078912803A1203014BD21A7047000081
:10465000FF03000051434343C9188C46110C83B239
:104660004B4310B4040C614392B280B25043624396
:104670001C041B0C001910BC59411304120CC01867
:1046800051416144704700004840414048400E4B52
:104690005B6818470C4B1B6818470C4A936F9B08C4
:1046A00002D2094BDB681847F0B5146E556E576F90
:1046B000166FFFF7F6FF054A1466556657671667CB
:1046C000F0BD014B9B681847380A0020000000D05D
:1046D000491A002808D1084670470000C10FC907D1
:1046E00000D54042002817D0F44603B40B4B1B689A
:1046F000984706BC81409E384042803107D20B0665
:1047000007D04900490AC0051043084360470130FB
:10471000F8E7490A8902F5E770470000640D0020B8
:10472000014B5B6A18470000380A0020132310B5BC
:1047300012481C78FFF71CF90100012C0AD003DD98
:1047400080220F4800F05AF80E48FFF709F90E4B87
:10475000186010BD0A4C5422200000F04FF80B4B9B
:104760006365A365E36523666366A366E366236703
:104770006367A367E3672362E361E5E753460000ED
:10478000380A00204C330000640D002091470010CF
:1047900007B5604601880A0A0230DF2AFAD1C9B299
:1047A000820804D3028840880004104300E00068B7
:1047B000014A5050039007BD380A002010B504008C
:1047C00000F078FB002804D0034B04199C4200D869
:1047D00010BD0248FDF7AAFB00000420906D0010F8
:1047E00001480421014B1847900200208139001034
:1047F000014B1B681847000090020020014B5B68CA
:104800001847000090020020F0B546464F46D646B5
:10481000C0B5437C80460E001700002B4BD0002A09
:1048200032DD274B01259A464B1E00240020994675
:1048300007E0335D0A2B2CD02B0001340135BB423D
:1048400013DA002CF5D133780A2BF5D143461B7CC3
:10485000002BF1D14346504602211B68984728009F
:104860002B0001340135BB42EBDB874204DD4346BC
:10487000391A1B6830189847F619013E33780D3BFA
:104880005A42534142461374E0BCBA46B146A84668
:10489000F0BD4B461B5D0D2BCED0A042DADA43466D
:1048A000211A1B68301898474346504602211B685E
:1048B00098472800D4E70368110030009847E3E7E1
:1048C000046E0010F0B5C6460B6806000C0000B57B
:1048D000802B06D05A1C2260E418267180BCB84692
:1048E000F0BD0F4B1D68002D16D00B1D98460D4FC7
:1048F00002E0ED68002D0FD02B68002BF9D03B684B
:10490000002B01D0AB42F4D1280041462268FFF7CA
:104910007BFFED68002DEFD101220023DBE7C046CD
:10492000000D0020080D0020F0B5CE46474680B5AA
:1049300083B06B46DE1CD02330701B061C68204BF6
:10494000804601A91800994600F0AAFF071E20D052
:104950001C4B1C68002C29D01B4D02E0E468002C85
:104960000FD02368002BF9D02B68002B01D0A34275
:10497000F4D1200001223100FFF746FFE468002C4B
:10498000EFD1002F12D1404603B0C0BCB946B046AB
:10499000F0BD019B64B29C420CD0484600F088FFF9
:1049A000084B1C68002C01D00127D5E7484600F0D1
:1049B0005FFFE8E7034B1C68002CCDD1E3E7C0465E
:1049C000F0070020000D0020080D0020F0B5DE46A5
:1049D00045464E465746E0B583B0060000F0DEFD82
:1049E000D0231B061C68304B050001A918009B460C
:1049F00000F056FF804600283DD02C4B1C689A469C
:104A0000002C47D00A232A4F994602E0E468002C84
:104A100017D02368002BF9D03B68002B01D0A342AC
:104A2000F4D120002A003100FFF7EEFE6B464A4623
:104A300020001A7101A90122FFF7E6FEE468002CAC
:104A4000E7D14346002B25D153461C68002C06D0E5
:104A50006368002B0BD09847E468002CF8D128003D
:104A600003B0F0BCBB46B246A946A046F0BDE46820
:104A7000002CEDD1F3E7019B64B29C420ED0584666
:104A800000F016FF094B1C689A46002C02D0012347
:104A90009846B7E7584600F0EBFED5E7034B1C6895
:104AA0009A46002CAED1DAE7F0070020000D002076
:104AB000080D00200A4A1368002B05D10CE01A00EB
:104AC000DB680C32002B07D09842F8D1002902D1C4
:104AD000C3681360C16070470029FCD01060FAE71A
:104AE000000D0020F0B54746CE46D02380B51B060A
:104AF0001F682D4BA3B004000D00180001A99846B3
:104B000000F0CEFE061E06D1019B7FB29F4203D06D
:104B1000404600F0CDFE01268422002101A8FFF7C7
:104B200067FE2B002200214801A9FEF7E9FE019B48
:104B30000700002B14D11E4B1C68002C06D06368A4
:104B4000002B0BD09847E468002CF8D1002E25D11B
:104B5000380023B0C0BCB946B046F0BDE468ECE70D
:104B6000134B1D689946002D1CD0124C02E0ED68D5
:104B7000002D0FD02B68002BF9D02368002B01D01B
:104B8000AB42F4D12800019A02A9FFF73DFEED687F
:104B9000002DEFD14B4601951C68CEE7404600F052
:104BA00067FED5E70195D1E7F0070020C548001062
:104BB000000D0020080D00200FB400B583B004A93B
:104BC00001C90191FFF78EFF03B008BC04B018477C
:104BD00010B500F043F810BDF0B5002915DD0E4BFF
:104BE0000D271A680D4B0E4CD3185D426B414518CA
:104BF00020215B001E5F0478A64207D0936919420A
:104C0000FCD101301460A842F5D1F0BD936919427E
:104C1000FCD11760F2E7C0461C0F00200080FCBFEB
:104C2000180F002030B50500002912DD00201024E7
:104C3000094B013D1A6893691C4208D10130936900
:104C40001C42FCD113682B548142F4D130BD0028A2
:104C5000FCD103204042F9E71C0F0020E12110B5F0
:104C60000B4B0C481B780C4B49021B780B4B186004
:104C7000FDF758F802210020FCF7E8F80221012096
:104C8000FCF7E4F801210648FFF714FF10BDC04609
:104C90007C6E001000400340786E00101C0F002056
:104CA000A0020020F0B5DE4657464E4645468846EF
:104CB000E0B583B006000524FCF728F943461F79C8
:104CC0001C57314B8246F3185A4253419B009C4675
:104CD0002E4A1300934662469B5801229946BA40D9
:104CE0002023013ADB1B002C36DB9C4246DCA24031
:104CF0004B46134242D10192002F1CD042464346FC
:104D000052781B7812021A4343469B7880251B0475
:104D100013434246D078002200061843AD015300E9
:104D2000C15AA94200D20919A31812339B000132BB
:104D30009951BA42F3D34D46019B62461D435B46EF
:104D400050469D50FCF7EEF8200003B0F0BCBB4687
:104D5000B246A946A046F0BD002B0FDB1100484625
:104D600099401C000191014206D1C5E71500494652
:104D70009D401C00294204D0013BF7D20448FDF7B6
:104D8000D5F80195B8E7C0460000D0AFA80C0020C8
:104D9000486E0010F0B54E464546DE4657468A46F8
:104DA0004900E0B50E0080465644F6004644894668
:104DB000310009ACDC31257808686C4265418446D5
:104DC00014481E2483466D42A5435D44052B0CD92F
:104DD000A0201F274005D836540104430532053B67
:104DE0000C603A403560052BF6D84F465744FF001B
:104DF0003800520140449B0613430200DC3213602A
:104E00006346D83005601360F0BCBB46B246A94685
:104E1000A046F0BD9FE00000F0B501258D4004687C
:104E2000AC430460002B30D04D006C18E400041932
:104E300026001F68C83637605F68DC3477609F687B
:104E4000DB68B76023606B18DB001D008024D03561
:104E5000451964012C4380252D0625602560144CDE
:104E60000D1D8C40846001242700AF403D000831B7
:104E70008C401F2106680A403543056005682C43B5
:104E80000460C018D8300260F0BD4D006C18E4001A
:104E9000041926008027C8367F023760F8277F0272
:104EA0007760C027DC343F03B7602360CBE7C046A0
:104EB0000101010110B5034B0100186800F004F86E
:104EC00010BDC046C8060020F0B54E464546DE4639
:104ED0005746E0B50D000B35060085B0162D27D8D6
:104EE000102900D9B9E000F0B7FA102518230220E4
:104EF000C74FFB181A005C68083A944200D11EE1C3
:104F0000032263689343E268A168CA60916001214B
:104F1000E3185A6830000A435A6000F0A5FA2000EE
:104F2000083005B0F0BCBB46B246A946A046F0BD6D
:104F300007239D4300D590E0A94200D98DE000F001
:104F40008BFAFC235B009D4200D27DE1680A00D110
:104F500087E0042800D928E138239846A80980442E
:104F60003930C100AA4F79184C680839A1420ED0D7
:104F700003239C4604E0002AC5DAE468A14206D077
:104F80006246636893435A1B0F2AF4DD40463A0099
:104F90003C690832944200D1C1E0032163688B432D
:104FA000591B0F2900DD53E13A617A610029AEDA1D
:104FB00080229200934200D3C7E05909DA08012306
:104FC0008B40D2007968D2190B4391687B60E26014
:104FD000A1609460CC60012182109140994248D830
:104FE0000B4205D103229043490004300B42FBD011
:104FF0000323B2469C4689460600B846F00040446A
:1050000001003700CC68A14207D1DBE0002A00DBB9
:105010000AE1E468A14200D1D4E0624663689343A8
:105020005A1B0F2AF2DD01204746804661190543CD
:105030006560A068E5685646C560A860404639616D
:105040007961104308374860CF6030008F60E250CC
:1050500000F00AFA2000083063E70C2300203360D8
:105060005FE780213F234020984689007AE7564633
:1050700047460322BC68636893439846AB4202D319
:105080005B1B0F2B4DDC230043440293614B082034
:105090001B6810335B19019300F02AFA5E490390F4
:1050A0000B688A46013306D08446019B4242013B8D
:1050B0006344134001933000019900F001FA0300AA
:1050C0008146013300D1E1E0029B834200D9DBE05D
:1050D000019A524B94461968029A61449B46080013
:1050E00019604A4500D065E14B46039A013A1342E4
:1050F00000D0EAE0BB689946634643441A000123A6
:105100001A434B465A60464B1868884200D21960D1
:10511000444B1868884200D219604C46B8E07B685E
:1051200059E70122290013431143651961603000DA
:10513000BD606B6000F098F920000830F1E6DC6893
:105140000230A34200D122E7DAE65A0A042A00D844
:1051500093E0142A00D919E111005B3189465C32D1
:10516000D200082149428C46BA189444624692689B
:105170000B318846944500D1F0E00100A14660461D
:105180008C4602E09268904204D044465168A143A4
:105190009942F7D84C46D36860469C467B68614686
:1051A000A260E1608C60D46015E7142800D87CE030
:1051B000542800D9F3E06E239846280B80446F30C2
:1051C000C100CFE601370831BB0700D01AE7032240
:1051D00005E003680838013E834200D034E13242E2
:1051E000F7D143464A465B689343424653604A467A
:1051F000520091469A4200D939E7002A04D136E795
:105200004A465200914604371342F9D03E00F5E673
:10521000C00200206C0B0020B40200203C0B0020D8
:10522000640B0020680B002001215646E3185A68E1
:1052300030000A435A60E368A268D3609A6000F0C5
:1052400013F9200008306CE62B00E80808334FE61D
:1052500060198046012084460543404665603861F8
:105260007861C260826062460A4342603000E15069
:1052700000F0FAF82000083053E69A09110039329C
:1052800038318946D2006CE7BC4214D0BC686268F1
:1052900003239A43531BAA4202D30F2B00DD40E79E
:1052A000300000F0E1F800203BE65B2398468044A4
:1052B0005C30C10056E6664B9B461868019B9C46D5
:1052C0005B4660441860039B5A1E53461B680133BB
:1052D00073D04B4602995B1A59461B180B60072383
:1052E000494648461940029118423FD0039801337D
:1052F00084465B1A019999444944019163441140E1
:105300005B1A1A4011003000924600F0D9F8431C95
:105310007AD04B46C01A0300534401935B46196888
:105320000120514419604B46019ABB6002435A6008
:10533000BC4200D1E7E643460F2B42D907220C3B83
:1053400093436268024005201A436260E21850608D
:1053500090600F2B4DD84B465A68D4E64B469910B7
:1053600001238B4079680B437B6018E7019B03990D
:105370004B441340CB1A1A4011003000924600F003
:105380009FF8431CC5D100239A46C7E7542A1BD86F
:105390001A0B11006F326E318946D200E1E6AA2362
:1053A0005B0098421BD8DD3B9846E80B8044783080
:1053B000C100D7E5039B5A1E87E75346494619604B
:1053C0008DE74B4658606BE7AA2149008A4226D8F0
:1053D000DA0B1100783277318946D200C1E61D4BD5
:1053E000984226D87C239846A80C80447D30C10082
:1053F000B8E521003000083100F058F95B46196823
:10540000BB6899465A687EE6019A029B94464A46D2
:10541000083B63449B1A019300239A467EE70D499B
:105420008A420CD89A0C11007D327C318946D20018
:1054300097E6FE217E237F209846890092E5FE2292
:105440007E21920089468CE643465B68CFE6C046E3
:105450003C0B00205405000010B5024800F09AF8FB
:1054600010BDC046380B002010B5024800F094F87B
:1054700010BDC046380B00200022034B1B68983338
:1054800018605A607047C046C8060020094B10B526
:105490001C68094A983420686168084BFFF7DAF8FD
:1054A00001220023801859412060616048004008B3
:1054B00010BDC046C80600202D7F954C2DF45158D4
:1054C000002370B5064C050008002360FCF712FDB0
:1054D000431C00D070BD2368002BFBD02B60F9E784
:1054E000040D0020014B18687047C046C806002014
:1054F000802310B55B01082801D1180010BDFFF70B
:10550000F1FF16230360173BF7E7C046024670B56C
:105510000A4392072AD11E4DEE0104C808C9541B44
:105520009443344017D0D0B2D9B2401A2106014377
:1055300010D190B299B2401A210401430AD110024D
:105540001902000A090A401A2102014302D1100E71
:10555000190E401A70BD9A42DFD010BA19BA8842AB
:1055600001D9012070BD0020C04370BD02780B78C6
:1055700001300131002A09D09A4207D102780B7814
:1055800001300131002A01D09A42EFD0D01A70BD0B
:10559000010101017047C0467047C04610B583073E
:1055A0000AD00300032102E001330B4205D01A7830
:1055B000002AF9D1181A10BD030019680C4A0D4CC5
:1055C0008A188A4322420FD15968094A04338A183B
:1055D0008A43224208D15968054A04338A188A430B
:1055E0002242F1D000E001331A78002AFBD1E1E732
:1055F000FFFEFEFE80808080F0B5C646060000B546
:1056000008200D00FFF774FF04003000FFF724FFAF
:10561000234B210098469B685F6803239F43380013
:105620001138401B0019FEF7F5F9451E6543AC42E1
:1056300008DC00213000FFF743FF43469B68DB197D
:10564000984206D03000FFF70FFF002080BCB8461C
:10565000F0BD30006942FFF733FF01300ED0012268
:1056600043467F1B9B6817430E4A5F6013683000F8
:105670005B1B1360FFF7F8FE0120E7E70021300015
:10568000FFF71EFF43469A68831A0F2BDADD064C9C
:1056900004492468001B086001210B435360D1E7D3
:1056A000C00200203C0B0020B4020020F8B5050029
:1056B0000C1E50D0FFF7D0FE012321009C46083974
:1056C00048686246030003249343CF187A68624E09
:1056D000A243B468BC426AD064467A6004421DD1D9
:1056E000340008680834091A1B188868A0424FD093
:1056F000CC68C460A0606446B8184068204211D1EC
:105700009B185648BA68824200D17FE0F868D060A2
:10571000826001221A434A60CB5007E0B818406803
:105720002042EDD062461A434A603B6080229200DC
:10573000934211D2DA085809012383407068034369
:105740007360D3009B199A68CB608A609960D160BE
:105750002800FFF789FEF8BD5C0A042C40D89C099C
:10576000200039343830E40034192268083C03271B
:10577000944203D143E09268944203D05068B84306
:105780009842F8D8D468CC608A60A160D160DFE725
:105790006446B8184068204258D1B868D218FB68EF
:1057A000C3609860634613434B608A50D0E79A18F1
:1057B0006346034206D10B68C91A8868D218CB68C1
:1057C000C3609860012313434B60254BB1601B6895
:1057D0009342BDD8234B28001968FFF70DFFB7E7A8
:1057E000142C07D9542C1AD81C0B20006F346E309F
:1057F000E400B9E720005C345B30E400B4E7012347
:1058000080108340706803437360BCE7D16091608F
:10581000CA608A6001221A434A60CB5098E7AA22E4
:105820005200944205D8DC0B200078347730E40035
:105830009AE70D4A944205D89C0C20007D347C30B8
:10584000E40091E7FE247E20A4008DE762461A431F
:105850004A603B607CE7C046C0020020C8020020CE
:10586000B80200206C0B002054050000F8B5C046BB
:1058700001B40248844601BC604700BF49010020D2
:1058800001B40248844601BC604700BF710100209A
:1058900001B40248844601BC604700BF710100208A
:1058A00001B40248844601BC604700BF09010020E2
:1058B00001B40248844601BC604700BFC10000201B
:1058C0007C2020202020202020202020202020207C
:1058D00020204368617261637465723A20256320F9
:1058E0007C204D6F72736520636F646520657175F0
:1058F0006976616C656E743A202573202020202023
:10590000202020202020202020202020207C0A0071
:105910007C2020202020202020202020202020202B
:105920002020202020202020202020202020202077
:105930002020202020202020202020202020202067
:105940002020202020202020202020202020202057
:105950002020202020202020202020202020207CEB
:10596000000000007C20202020202020202020205B
:105970002020202020204368617261637465723AA0
:10598000202563207C204D6F72736520636F6465F2
:10599000206571756976616C656E74206E6F742018
:1059A00073686F776E202020202020202020202068
:1059B0002020207C0A0000007C20202020202020A5
:1059C00020202020202020202020202020202020D7
:1059D00020596F7520696E707574202573203A20E8
:1059E000256320202020202020202020202020206F
:1059F00020202020202020202020202020202020A7
:105A00002020202020207C0A00000000696E707594
:105A100074206120737061636520686572650000A1
:105A20002E5F5F5F5F5F5F5F5F5F5F5F5F5F5F5FB7
:105A30005F5F5F5F5F5F5F5F5F5F5F5F5F5F5F5F76
:105A40005F5F5F5F5F5F5F5F5F5F5F5F5F5F5F5F66
:105A50005F5F5F5F5F5F5F5F5F5F5F5F5F5F5F5F56
:105A60005F5F5F5F5F5F5F5F5F5F5F5F5F5F5F2E77
:105A7000000000007C20202020202020202020204A
:105A80002020202020202020202020202020202016
:105A90002057656C636F6D6520746F204C6576656B
:105AA0006C20312020202020202020202020202099
:105AB00020202020202020202020202020202020E6
:105AC0002020207C000000007C202020202020209E
:105AD00020202020202020202020202020202020C6
